{
  "_format": "hh-sol-artifact-1",
  "contractName": "ModelValidator",
  "sourceName": "contracts/ModelValidator.sol",
  "abi": [
    {
      "inputs": [],
      "stateMutability": "nonpayable",
      "type": "constructor"
    },
    {
      "inputs": [],
      "name": "AccessControlBadConfirmation",
      "type": "error"
    },
    {
      "inputs": [
        {
          "internalType": "address",
          "name": "account",
          "type": "address"
        },
        {
          "internalType": "bytes32",
          "name": "neededRole",
          "type": "bytes32"
        }
      ],
      "name": "AccessControlUnauthorizedAccount",
      "type": "error"
    },
    {
      "inputs": [],
      "name": "EnforcedPause",
      "type": "error"
    },
    {
      "inputs": [],
      "name": "ExpectedPause",
      "type": "error"
    },
    {
      "inputs": [],
      "name": "ReentrancyGuardReentrantCall",
      "type": "error"
    },
    {
      "anonymous": false,
      "inputs": [
        {
          "indexed": true,
          "internalType": "address",
          "name": "client",
          "type": "address"
        },
        {
          "indexed": false,
          "internalType": "uint256",
          "name": "newReputation",
          "type": "uint256"
        },
        {
          "indexed": false,
          "internalType": "uint256",
          "name": "totalContributions",
          "type": "uint256"
        }
      ],
      "name": "ClientReputationUpdated",
      "type": "event"
    },
    {
      "anonymous": false,
      "inputs": [
        {
          "indexed": true,
          "internalType": "address",
          "name": "caller",
          "type": "address"
        },
        {
          "indexed": false,
          "internalType": "string",
          "name": "reason",
          "type": "string"
        }
      ],
      "name": "EmergencyStop",
      "type": "event"
    },
    {
      "anonymous": false,
      "inputs": [
        {
          "indexed": true,
          "internalType": "bytes32",
          "name": "modelHash",
          "type": "bytes32"
        },
        {
          "indexed": true,
          "internalType": "uint256",
          "name": "roundId",
          "type": "uint256"
        },
        {
          "indexed": false,
          "internalType": "bool",
          "name": "isValid",
          "type": "bool"
        },
        {
          "indexed": true,
          "internalType": "address",
          "name": "validator",
          "type": "address"
        },
        {
          "indexed": false,
          "internalType": "uint256",
          "name": "timestamp",
          "type": "uint256"
        },
        {
          "indexed": false,
          "internalType": "uint256",
          "name": "gasUsed",
          "type": "uint256"
        }
      ],
      "name": "ModelValidated",
      "type": "event"
    },
    {
      "anonymous": false,
      "inputs": [
        {
          "indexed": false,
          "internalType": "address",
          "name": "account",
          "type": "address"
        }
      ],
      "name": "Paused",
      "type": "event"
    },
    {
      "anonymous": false,
      "inputs": [
        {
          "indexed": false,
          "internalType": "uint256",
          "name": "oldThreshold",
          "type": "uint256"
        },
        {
          "indexed": false,
          "internalType": "uint256",
          "name": "newThreshold",
          "type": "uint256"
        }
      ],
      "name": "QualityThresholdUpdated",
      "type": "event"
    },
    {
      "anonymous": false,
      "inputs": [
        {
          "indexed": true,
          "internalType": "bytes32",
          "name": "role",
          "type": "bytes32"
        },
        {
          "indexed": true,
          "internalType": "bytes32",
          "name": "previousAdminRole",
          "type": "bytes32"
        },
        {
          "indexed": true,
          "internalType": "bytes32",
          "name": "newAdminRole",
          "type": "bytes32"
        }
      ],
      "name": "RoleAdminChanged",
      "type": "event"
    },
    {
      "anonymous": false,
      "inputs": [
        {
          "indexed": true,
          "internalType": "bytes32",
          "name": "role",
          "type": "bytes32"
        },
        {
          "indexed": true,
          "internalType": "address",
          "name": "account",
          "type": "address"
        },
        {
          "indexed": true,
          "internalType": "address",
          "name": "sender",
          "type": "address"
        }
      ],
      "name": "RoleGranted",
      "type": "event"
    },
    {
      "anonymous": false,
      "inputs": [
        {
          "indexed": true,
          "internalType": "bytes32",
          "name": "role",
          "type": "bytes32"
        },
        {
          "indexed": true,
          "internalType": "address",
          "name": "account",
          "type": "address"
        },
        {
          "indexed": true,
          "internalType": "address",
          "name": "sender",
          "type": "address"
        }
      ],
      "name": "RoleRevoked",
      "type": "event"
    },
    {
      "anonymous": false,
      "inputs": [
        {
          "indexed": false,
          "internalType": "address",
          "name": "account",
          "type": "address"
        }
      ],
      "name": "Unpaused",
      "type": "event"
    },
    {
      "inputs": [],
      "name": "DEFAULT_ADMIN_ROLE",
      "outputs": [
        {
          "internalType": "bytes32",
          "name": "",
          "type": "bytes32"
        }
      ],
      "stateMutability": "view",
      "type": "function"
    },
    {
      "inputs": [],
      "name": "PAUSER_ROLE",
      "outputs": [
        {
          "internalType": "bytes32",
          "name": "",
          "type": "bytes32"
        }
      ],
      "stateMutability": "view",
      "type": "function"
    },
    {
      "inputs": [],
      "name": "VALIDATOR_ROLE",
      "outputs": [
        {
          "internalType": "bytes32",
          "name": "",
          "type": "bytes32"
        }
      ],
      "stateMutability": "view",
      "type": "function"
    },
    {
      "inputs": [
        {
          "internalType": "address",
          "name": "_validator",
          "type": "address"
        }
      ],
      "name": "addValidator",
      "outputs": [],
      "stateMutability": "nonpayable",
      "type": "function"
    },
    {
      "inputs": [
        {
          "internalType": "address",
          "name": "",
          "type": "address"
        }
      ],
      "name": "clientReputations",
      "outputs": [
        {
          "internalType": "uint256",
          "name": "totalContributions",
          "type": "uint256"
        },
        {
          "internalType": "uint256",
          "name": "validContributions",
          "type": "uint256"
        },
        {
          "internalType": "uint256",
          "name": "reputation",
          "type": "uint256"
        },
        {
          "internalType": "uint256",
          "name": "lastUpdate",
          "type": "uint256"
        }
      ],
      "stateMutability": "view",
      "type": "function"
    },
    {
      "inputs": [],
      "name": "currentRound",
      "outputs": [
        {
          "internalType": "uint256",
          "name": "",
          "type": "uint256"
        }
      ],
      "stateMutability": "view",
      "type": "function"
    },
    {
      "inputs": [
        {
          "internalType": "string",
          "name": "_reason",
          "type": "string"
        }
      ],
      "name": "emergencyStop",
      "outputs": [],
      "stateMutability": "nonpayable",
      "type": "function"
    },
    {
      "inputs": [
        {
          "internalType": "address",
          "name": "_client",
          "type": "address"
        }
      ],
      "name": "getClientReputation",
      "outputs": [
        {
          "components": [
            {
              "internalType": "uint256",
              "name": "totalContributions",
              "type": "uint256"
            },
            {
              "internalType": "uint256",
              "name": "validContributions",
              "type": "uint256"
            },
            {
              "internalType": "uint256",
              "name": "reputation",
              "type": "uint256"
            },
            {
              "internalType": "uint256",
              "name": "lastUpdate",
              "type": "uint256"
            }
          ],
          "internalType": "struct ModelValidator.ClientReputation",
          "name": "reputation",
          "type": "tuple"
        }
      ],
      "stateMutability": "view",
      "type": "function"
    },
    {
      "inputs": [],
      "name": "getContractBalance",
      "outputs": [
        {
          "internalType": "uint256",
          "name": "balance",
          "type": "uint256"
        }
      ],
      "stateMutability": "view",
      "type": "function"
    },
    {
      "inputs": [],
      "name": "getContractStats",
      "outputs": [
        {
          "internalType": "uint256[4]",
          "name": "stats",
          "type": "uint256[4]"
        }
      ],
      "stateMutability": "view",
      "type": "function"
    },
    {
      "inputs": [
        {
          "internalType": "bytes32",
          "name": "role",
          "type": "bytes32"
        }
      ],
      "name": "getRoleAdmin",
      "outputs": [
        {
          "internalType": "bytes32",
          "name": "",
          "type": "bytes32"
        }
      ],
      "stateMutability": "view",
      "type": "function"
    },
    {
      "inputs": [
        {
          "internalType": "uint256",
          "name": "_roundId",
          "type": "uint256"
        }
      ],
      "name": "getRoundModels",
      "outputs": [
        {
          "internalType": "bytes32[]",
          "name": "modelHashes",
          "type": "bytes32[]"
        }
      ],
      "stateMutability": "view",
      "type": "function"
    },
    {
      "inputs": [
        {
          "internalType": "string",
          "name": "_modelHashStr",
          "type": "string"
        }
      ],
      "name": "getValidationResult",
      "outputs": [
        {
          "components": [
            {
              "internalType": "bytes32",
              "name": "modelHash",
              "type": "bytes32"
            },
            {
              "internalType": "uint256",
              "name": "roundId",
              "type": "uint256"
            },
            {
              "internalType": "bool",
              "name": "isValid",
              "type": "bool"
            },
            {
              "internalType": "uint256",
              "name": "timestamp",
              "type": "uint256"
            },
            {
              "internalType": "string",
              "name": "metadata",
              "type": "string"
            },
            {
              "internalType": "address",
              "name": "validator",
              "type": "address"
            },
            {
              "internalType": "uint256",
              "name": "gasUsed",
              "type": "uint256"
            }
          ],
          "internalType": "struct ModelValidator.ValidationResult",
          "name": "result",
          "type": "tuple"
        }
      ],
      "stateMutability": "view",
      "type": "function"
    },
    {
      "inputs": [
        {
          "internalType": "bytes32",
          "name": "role",
          "type": "bytes32"
        },
        {
          "internalType": "address",
          "name": "account",
          "type": "address"
        }
      ],
      "name": "grantRole",
      "outputs": [],
      "stateMutability": "nonpayable",
      "type": "function"
    },
    {
      "inputs": [
        {
          "internalType": "bytes32",
          "name": "role",
          "type": "bytes32"
        },
        {
          "internalType": "address",
          "name": "account",
          "type": "address"
        }
      ],
      "name": "hasRole",
      "outputs": [
        {
          "internalType": "bool",
          "name": "",
          "type": "bool"
        }
      ],
      "stateMutability": "view",
      "type": "function"
    },
    {
      "inputs": [
        {
          "internalType": "string",
          "name": "_modelHashStr",
          "type": "string"
        }
      ],
      "name": "isValidModel",
      "outputs": [
        {
          "internalType": "bool",
          "name": "isValid",
          "type": "bool"
        }
      ],
      "stateMutability": "view",
      "type": "function"
    },
    {
      "inputs": [
        {
          "internalType": "address",
          "name": "_validator",
          "type": "address"
        }
      ],
      "name": "isValidator",
      "outputs": [
        {
          "internalType": "bool",
          "name": "",
          "type": "bool"
        }
      ],
      "stateMutability": "view",
      "type": "function"
    },
    {
      "inputs": [
        {
          "internalType": "address",
          "name": "",
          "type": "address"
        }
      ],
      "name": "lastValidationTime",
      "outputs": [
        {
          "internalType": "uint256",
          "name": "",
          "type": "uint256"
        }
      ],
      "stateMutability": "view",
      "type": "function"
    },
    {
      "inputs": [],
      "name": "maxValidationsPerRound",
      "outputs": [
        {
          "internalType": "uint256",
          "name": "",
          "type": "uint256"
        }
      ],
      "stateMutability": "view",
      "type": "function"
    },
    {
      "inputs": [],
      "name": "minValidationInterval",
      "outputs": [
        {
          "internalType": "uint256",
          "name": "",
          "type": "uint256"
        }
      ],
      "stateMutability": "view",
      "type": "function"
    },
    {
      "inputs": [],
      "name": "paused",
      "outputs": [
        {
          "internalType": "bool",
          "name": "",
          "type": "bool"
        }
      ],
      "stateMutability": "view",
      "type": "function"
    },
    {
      "inputs": [],
      "name": "qualityThreshold",
      "outputs": [
        {
          "internalType": "uint256",
          "name": "",
          "type": "uint256"
        }
      ],
      "stateMutability": "view",
      "type": "function"
    },
    {
      "inputs": [
        {
          "internalType": "address",
          "name": "_validator",
          "type": "address"
        }
      ],
      "name": "removeValidator",
      "outputs": [],
      "stateMutability": "nonpayable",
      "type": "function"
    },
    {
      "inputs": [
        {
          "internalType": "bytes32",
          "name": "role",
          "type": "bytes32"
        },
        {
          "internalType": "address",
          "name": "callerConfirmation",
          "type": "address"
        }
      ],
      "name": "renounceRole",
      "outputs": [],
      "stateMutability": "nonpayable",
      "type": "function"
    },
    {
      "inputs": [],
      "name": "resumeOperations",
      "outputs": [],
      "stateMutability": "nonpayable",
      "type": "function"
    },
    {
      "inputs": [
        {
          "internalType": "bytes32",
          "name": "role",
          "type": "bytes32"
        },
        {
          "internalType": "address",
          "name": "account",
          "type": "address"
        }
      ],
      "name": "revokeRole",
      "outputs": [],
      "stateMutability": "nonpayable",
      "type": "function"
    },
    {
      "inputs": [
        {
          "internalType": "uint256",
          "name": "",
          "type": "uint256"
        },
        {
          "internalType": "uint256",
          "name": "",
          "type": "uint256"
        }
      ],
      "name": "roundModels",
      "outputs": [
        {
          "internalType": "bytes32",
          "name": "",
          "type": "bytes32"
        }
      ],
      "stateMutability": "view",
      "type": "function"
    },
    {
      "inputs": [
        {
          "internalType": "uint256",
          "name": "_newMax",
          "type": "uint256"
        }
      ],
      "name": "setMaxValidationsPerRound",
      "outputs": [],
      "stateMutability": "nonpayable",
      "type": "function"
    },
    {
      "inputs": [
        {
          "internalType": "uint256",
          "name": "_newThreshold",
          "type": "uint256"
        }
      ],
      "name": "setQualityThreshold",
      "outputs": [],
      "stateMutability": "nonpayable",
      "type": "function"
    },
    {
      "inputs": [
        {
          "internalType": "uint256",
          "name": "_newCost",
          "type": "uint256"
        }
      ],
      "name": "setValidationCost",
      "outputs": [],
      "stateMutability": "nonpayable",
      "type": "function"
    },
    {
      "inputs": [
        {
          "internalType": "bytes4",
          "name": "interfaceId",
          "type": "bytes4"
        }
      ],
      "name": "supportsInterface",
      "outputs": [
        {
          "internalType": "bool",
          "name": "",
          "type": "bool"
        }
      ],
      "stateMutability": "view",
      "type": "function"
    },
    {
      "inputs": [],
      "name": "totalValidValidations",
      "outputs": [
        {
          "internalType": "uint256",
          "name": "",
          "type": "uint256"
        }
      ],
      "stateMutability": "view",
      "type": "function"
    },
    {
      "inputs": [],
      "name": "totalValidations",
      "outputs": [
        {
          "internalType": "uint256",
          "name": "",
          "type": "uint256"
        }
      ],
      "stateMutability": "view",
      "type": "function"
    },
    {
      "inputs": [
        {
          "internalType": "string",
          "name": "_modelHashStr",
          "type": "string"
        },
        {
          "internalType": "string",
          "name": "_metadata",
          "type": "string"
        },
        {
          "internalType": "uint256",
          "name": "_roundId",
          "type": "uint256"
        }
      ],
      "name": "validateModelUpdate",
      "outputs": [
        {
          "internalType": "bool",
          "name": "isValid",
          "type": "bool"
        }
      ],
      "stateMutability": "payable",
      "type": "function"
    },
    {
      "inputs": [],
      "name": "validationCost",
      "outputs": [
        {
          "internalType": "uint256",
          "name": "",
          "type": "uint256"
        }
      ],
      "stateMutability": "view",
      "type": "function"
    },
    {
      "inputs": [
        {
          "internalType": "bytes32",
          "name": "",
          "type": "bytes32"
        }
      ],
      "name": "validations",
      "outputs": [
        {
          "internalType": "bytes32",
          "name": "modelHash",
          "type": "bytes32"
        },
        {
          "internalType": "uint256",
          "name": "roundId",
          "type": "uint256"
        },
        {
          "internalType": "bool",
          "name": "isValid",
          "type": "bool"
        },
        {
          "internalType": "uint256",
          "name": "timestamp",
          "type": "uint256"
        },
        {
          "internalType": "string",
          "name": "metadata",
          "type": "string"
        },
        {
          "internalType": "address",
          "name": "validator",
          "type": "address"
        },
        {
          "internalType": "uint256",
          "name": "gasUsed",
          "type": "uint256"
        }
      ],
      "stateMutability": "view",
      "type": "function"
    },
    {
      "inputs": [
        {
          "internalType": "address payable",
          "name": "_to",
          "type": "address"
        },
        {
          "internalType": "uint256",
          "name": "_amount",
          "type": "uint256"
        }
      ],
      "name": "withdrawFees",
      "outputs": [],
      "stateMutability": "nonpayable",
      "type": "function"
    },
    {
      "stateMutability": "payable",
      "type": "receive"
    }
  ],
  "bytecode": "0x60806040526064600655606460075566038d7ea4c68000600855603c600a553480156200002b57600080fd5b50600180556200003d6000336200009e565b506200006a7f21702c8af46127c7fa207f89d0b0a8441bb32959a0ac7df790e9ab1a25c98926336200009e565b50620000977f65d7a28e3265b37a6474929f336521b332c1681b933f6cb9f3376673440d862a336200009e565b506200014d565b6000828152602081815260408083206001600160a01b038516845290915281205460ff1662000143576000838152602081815260408083206001600160a01b03861684529091529020805460ff19166001179055620000fa3390565b6001600160a01b0316826001600160a01b0316847f2f8788117e7eff1d82e926ec794901d17c78024a50270940304540a733656f0d60405160405180910390a450600162000147565b5060005b92915050565b611d52806200015d6000396000f3fe60806040526004361061021e5760003560e01c80636f9fb98a11610123578063b1e3268b116100ab578063e28c38021161006f578063e28c38021461068f578063e63ab1e9146106c2578063e9266931146106f6578063eb5c7ac514610723578063facd743b1461074357600080fd5b8063b1e3268b146105de578063c49baebe146105fe578063d547741f14610620578063d629490c14610640578063dfe6b5d61461066d57600080fd5b8063952684ae116100f2578063952684ae14610568578063a217fddf1461057e578063a6e1d01614610593578063ad3b1b47146105a8578063aebf13ab146105c857600080fd5b80636f9fb98a146105095780637e83514b1461051c5780638a19c8bc1461053257806391d148541461054857600080fd5b806336568abe116101a657806349d015951161017557806349d01595146104855780634d238c8e1461049b5780635808ea89146104bb5780635c975abb146104db57806363c999c3146104f357600080fd5b806336568abe146103cd57806340a141ff146103ed57806342af64381461040d57806348fc1b0f1461046f57600080fd5b8063248a9ca3116101ed578063248a9ca3146102f35780632936c507146103235780632cb817b61461035e5780632d37dc781461038b5780632f2ff15d146103ad57600080fd5b806301e32e491461022a57806301ffc9a71461025257806303ac4f67146102725780631efb3ba4146102a057600080fd5b3661022557005b600080fd5b61023d6102383660046117e7565b610763565b60405190151581526020015b60405180910390f35b34801561025e57600080fd5b5061023d61026d366004611854565b610b8c565b34801561027e57600080fd5b5061029261028d36600461187e565b610bc3565b604051908152602001610249565b3480156102ac57600080fd5b506102c06102bb3660046118b5565b610bf4565b60405161024991908151815260208083015190820152604080830151908201526060918201519181019190915260800190565b3480156102ff57600080fd5b5061029261030e3660046118d2565b60009081526020819052604090206001015490565b34801561032f57600080fd5b5061023d61033e3660046118eb565b805160209182012060009081526003909152604090206002015460ff1690565b34801561036a57600080fd5b5061037e6103793660046118d2565b610c6d565b6040516102499190611928565b34801561039757600080fd5b506103ab6103a63660046118d2565b610ccf565b005b3480156103b957600080fd5b506103ab6103c836600461196c565b610d67565b3480156103d957600080fd5b506103ab6103e836600461196c565b610d92565b3480156103f957600080fd5b506103ab6104083660046118b5565b610dca565b34801561041957600080fd5b5061044f6104283660046118b5565b60046020526000908152604090208054600182015460028301546003909301549192909184565b604080519485526020850193909352918301526060820152608001610249565b34801561047b57600080fd5b5061029260085481565b34801561049157600080fd5b50610292600c5481565b3480156104a757600080fd5b506103ab6104b63660046118b5565b610df1565b3480156104c757600080fd5b506103ab6104d63660046118d2565b610e14565b3480156104e757600080fd5b5060025460ff1661023d565b3480156104ff57600080fd5b5061029260065481565b34801561051557600080fd5b5047610292565b34801561052857600080fd5b50610292600b5481565b34801561053e57600080fd5b50610292600d5481565b34801561055457600080fd5b5061023d61056336600461196c565b610e77565b34801561057457600080fd5b50610292600a5481565b34801561058a57600080fd5b50610292600081565b34801561059f57600080fd5b506103ab610ea0565b3480156105b457600080fd5b506103ab6105c336600461199c565b610eb6565b3480156105d457600080fd5b5061029260075481565b3480156105ea57600080fd5b506103ab6105f93660046118eb565b610f98565b34801561060a57600080fd5b50610292600080516020611cfd83398151915281565b34801561062c57600080fd5b506103ab61063b36600461196c565b61100f565b34801561064c57600080fd5b5061066061065b3660046118eb565b611034565b6040516102499190611a0e565b34801561067957600080fd5b50610682611170565b6040516102499190611a80565b34801561069b57600080fd5b506106af6106aa3660046118d2565b611198565b6040516102499796959493929190611ab1565b3480156106ce57600080fd5b506102927f65d7a28e3265b37a6474929f336521b332c1681b933f6cb9f3376673440d862a81565b34801561070257600080fd5b506102926107113660046118b5565b60096020526000908152604090205481565b34801561072f57600080fd5b506103ab61073e3660046118d2565b61126e565b34801561074f57600080fd5b5061023d61075e3660046118b5565b6112c6565b600061076d6112e0565b61077561130a565b6008543410156107cc5760405162461bcd60e51b815260206004820152601b60248201527f496e73756666696369656e742076616c69646174696f6e20666565000000000060448201526064015b60405180910390fd5b60008451116108125760405162461bcd60e51b8152602060048201526012602482015271092dcecc2d8d2c840dadec8cad840d0c2e6d60731b60448201526064016107c3565b60008351116108565760405162461bcd60e51b815260206004820152601060248201526f496e76616c6964206d6574616461746160801b60448201526064016107c3565b600082116108995760405162461bcd60e51b815260206004820152601060248201526f125b9d985b1a59081c9bdd5b9908125160821b60448201526064016107c3565b600a54336000908152600960205260409020546108b69190611b13565b4210156109055760405162461bcd60e51b815260206004820152601760248201527f56616c69646174696f6e20746f6f206672657175656e7400000000000000000060448201526064016107c3565b336000908152600960209081526040808320429055600754858452600590925290912054106109815760405162461bcd60e51b815260206004820152602260248201527f4d61782076616c69646174696f6e732070657220726f756e6420657863656564604482015261195960f21b60648201526084016107c3565b835160208086019190912060008181526003928390526040902090910154156109ec5760405162461bcd60e51b815260206004820152601760248201527f4d6f64656c20616c72656164792076616c69646174656400000000000000000060448201526064016107c3565b60005a90506109fc868686611330565b925060005a610a0b9083611b26565b6040805160e08101825285815260208082018981528815158385019081524260608501908152608085018d81523360a087015260c0860188905260008b8152600395869052969096208551815592516001840155905160028301805460ff191691151591909117905551918101919091559151929350916004820190610a919082611bc1565b5060a0820151600582810180546001600160a01b0319166001600160a01b039093169290921790915560c0909201516006909101556000868152602091825260408120805460018101825590825291902001839055600d54851115610af657600d8590555b600b8054906000610b0683611c81565b91905055508315610b2757600c8054906000610b2183611c81565b91905055505b610b313385611394565b6040805185151581524260208201529081018290523390869085907f5a02718c30be7c838ae52827da1465c276c0bfcccdb766fceb69e34cffac34f29060600160405180910390a4505050610b8560018055565b9392505050565b60006001600160e01b03198216637965db0b60e01b1480610bbd57506301ffc9a760e01b6001600160e01b03198316145b92915050565b60056020528160005260406000208181548110610bdf57600080fd5b90600052602060002001600091509150505481565b610c1f6040518060800160405280600081526020016000815260200160008152602001600081525090565b506001600160a01b0316600090815260046020908152604091829020825160808101845281548152600182015492810192909252600281015492820192909252600390910154606082015290565b600081815260056020908152604091829020805483518184028101840190945280845260609392830182828015610cc357602002820191906000526020600020905b815481526020019060010190808311610caf575b50505050509050919050565b6000610cda816114af565b6103e8821115610d215760405162461bcd60e51b81526020600482015260126024820152710a8d0e4cae6d0ded8c840e8dede40d0d2ced60731b60448201526064016107c3565b600680549083905560408051828152602081018590527feb9922e3ed7835455c0b321d214f497e036d91a33d2e9883f5224484432a07ca910160405180910390a1505050565b600082815260208190526040902060010154610d82816114af565b610d8c83836114b9565b50505050565b6001600160a01b0381163314610dbb5760405163334bd91960e11b815260040160405180910390fd5b610dc5828261154b565b505050565b6000610dd5816114af565b610ded600080516020611cfd8339815191528361100f565b5050565b6000610dfc816114af565b610ded600080516020611cfd83398151915283610d67565b6000610e1f816114af565b600082118015610e3157506103e88211155b610e715760405162461bcd60e51b8152602060048201526011602482015270496e76616c6964206d61782076616c756560781b60448201526064016107c3565b50600755565b6000918252602082815260408084206001600160a01b0393909316845291905290205460ff1690565b6000610eab816114af565b610eb36115b6565b50565b6000610ec1816114af565b610ec96112e0565b6001600160a01b038316610f115760405162461bcd60e51b815260206004820152600f60248201526e496e76616c6964206164647265737360881b60448201526064016107c3565b47821115610f585760405162461bcd60e51b8152602060048201526014602482015273496e73756666696369656e742062616c616e636560601b60448201526064016107c3565b6040516001600160a01b0384169083156108fc029084906000818181858888f19350505050158015610f8e573d6000803e3d6000fd5b50610dc560018055565b7f65d7a28e3265b37a6474929f336521b332c1681b933f6cb9f3376673440d862a610fc2816114af565b610fca611608565b336001600160a01b03167f1563b77cf90dc5239369e59f415971492f0001ebea4f20a7f58d55eb638b5504836040516110039190611c9a565b60405180910390a25050565b60008281526020819052604090206001015461102a816114af565b610d8c838361154b565b6040805160e08082018352600080835260208084018290528385018290526060808501839052608080860182905260a0860184905260c086018490528751888401208085526003808552948890208851968701895280548752600181015494870194909452600284015460ff16151597860197909752928201549084015260048101805494959491928401916110c990611b39565b80601f01602080910402602001604051908101604052809291908181526020018280546110f590611b39565b80156111425780601f1061111757610100808354040283529160200191611142565b820191906000526020600020905b81548152906001019060200180831161112557829003601f168201915b505050918352505060058201546001600160a01b031660208201526006909101546040909101529392505050565b611178611726565b600b548152600c546020820152600d546040820152600654606082015290565b6003602081905260009182526040909120805460018201546002830154938301546004840180549395929460ff909316939192916111d590611b39565b80601f016020809104026020016040519081016040528092919081815260200182805461120190611b39565b801561124e5780601f106112235761010080835404028352916020019161124e565b820191906000526020600020905b81548152906001019060200180831161123157829003601f168201915b50505050600583015460069093015491926001600160a01b031691905087565b6000611279816114af565b662386f26fc100008211156112c05760405162461bcd60e51b815260206004820152600d60248201526c086dee6e840e8dede40d0d2ced609b1b60448201526064016107c3565b50600855565b6000610bbd600080516020611cfd83398151915283610e77565b60026001540361130357604051633ee5aeb560e01b815260040160405180910390fd5b6002600155565b60025460ff161561132e5760405163d93c066560e01b815260040160405180910390fd5b565b6000835160401461134357506000610b85565b61134c83611645565b61135857506000610b85565b60648351101561136a57506000610b85565b600d548210801561137d57506000600d54115b1561138a57506000610b85565b5060019392505050565b6001600160a01b03821660009081526004602052604081208054909182906113bb83611c81565b919050555081156113de576001810180549060006113d883611c81565b91905055505b80546001820154600091906113f5906103e8611cc3565b6113ff9190611cda565b905081600201546000036114195760028201819055611452565b6103e8611427826064611cc3565b600284015461143890610384611cc3565b6114429190611b13565b61144c9190611cda565b60028301555b426003830155600282015482546040516001600160a01b038716927f321a7be3e7c379ccb935df0be2f2b71bdfbbf61b8a7ce71ab73e1401e9748708926114a192918252602082015260400190565b60405180910390a250505050565b610eb381336116ca565b60006114c58383610e77565b611543576000838152602081815260408083206001600160a01b03861684529091529020805460ff191660011790556114fb3390565b6001600160a01b0316826001600160a01b0316847f2f8788117e7eff1d82e926ec794901d17c78024a50270940304540a733656f0d60405160405180910390a4506001610bbd565b506000610bbd565b60006115578383610e77565b15611543576000838152602081815260408083206001600160a01b0386168085529252808320805460ff1916905551339286917ff6391f5c32d9c69d2a47ea670b442974b53935d1edc7fd64eb21e047a839171b9190a4506001610bbd565b6115be611703565b6002805460ff191690557f5db9ee0a495bf2e6ff9c91a7834c1ba4fdd244a5e8aa4e537bd38aeae4b073aa335b6040516001600160a01b03909116815260200160405180910390a1565b61161061130a565b6002805460ff191660011790557f62e78cea01bee320cd4e420270b5ea74000d11b0c9f74754ebdbfc544b05a2586115eb3390565b60008082905060028151101561165e5750600092915050565b8060008151811061167157611671611cad565b6020910101516001600160f81b031916607b60f81b148015610b855750806001825161169d9190611b26565b815181106116ad576116ad611cad565b6020910101516001600160f81b031916607d60f81b149392505050565b6116d48282610e77565b610ded5760405163e2517d3f60e01b81526001600160a01b0382166004820152602481018390526044016107c3565b60025460ff1661132e57604051638dfc202b60e01b815260040160405180910390fd5b60405180608001604052806004906020820280368337509192915050565b634e487b7160e01b600052604160045260246000fd5b600082601f83011261176b57600080fd5b813567ffffffffffffffff8082111561178657611786611744565b604051601f8301601f19908116603f011681019082821181831017156117ae576117ae611744565b816040528381528660208588010111156117c757600080fd5b836020870160208301376000602085830101528094505050505092915050565b6000806000606084860312156117fc57600080fd5b833567ffffffffffffffff8082111561181457600080fd5b6118208783880161175a565b9450602086013591508082111561183657600080fd5b506118438682870161175a565b925050604084013590509250925092565b60006020828403121561186657600080fd5b81356001600160e01b031981168114610b8557600080fd5b6000806040838503121561189157600080fd5b50508035926020909101359150565b6001600160a01b0381168114610eb357600080fd5b6000602082840312156118c757600080fd5b8135610b85816118a0565b6000602082840312156118e457600080fd5b5035919050565b6000602082840312156118fd57600080fd5b813567ffffffffffffffff81111561191457600080fd5b6119208482850161175a565b949350505050565b6020808252825182820181905260009190848201906040850190845b8181101561196057835183529284019291840191600101611944565b50909695505050505050565b6000806040838503121561197f57600080fd5b823591506020830135611991816118a0565b809150509250929050565b600080604083850312156119af57600080fd5b82356119ba816118a0565b946020939093013593505050565b6000815180845260005b818110156119ee576020818501810151868301820152016119d2565b506000602082860101526020601f19601f83011685010191505092915050565b602081528151602082015260208201516040820152604082015115156060820152606082015160808201526000608083015160e060a0840152611a556101008401826119c8565b60a08501516001600160a01b031660c0858101919091529094015160e0909301929092525090919050565b60808101818360005b6004811015611aa8578151835260209283019290910190600101611a89565b50505092915050565b878152866020820152851515604082015284606082015260e060808201526000611ade60e08301866119c8565b6001600160a01b039490941660a08301525060c0015295945050505050565b634e487b7160e01b600052601160045260246000fd5b80820180821115610bbd57610bbd611afd565b81810381811115610bbd57610bbd611afd565b600181811c90821680611b4d57607f821691505b602082108103611b6d57634e487b7160e01b600052602260045260246000fd5b50919050565b601f821115610dc557600081815260208120601f850160051c81016020861015611b9a5750805b601f850160051c820191505b81811015611bb957828155600101611ba6565b505050505050565b815167ffffffffffffffff811115611bdb57611bdb611744565b611bef81611be98454611b39565b84611b73565b602080601f831160018114611c245760008415611c0c5750858301515b600019600386901b1c1916600185901b178555611bb9565b600085815260208120601f198616915b82811015611c5357888601518255948401946001909101908401611c34565b5085821015611c715787850151600019600388901b60f8161c191681555b5050505050600190811b01905550565b600060018201611c9357611c93611afd565b5060010190565b602081526000610b8560208301846119c8565b634e487b7160e01b600052603260045260246000fd5b8082028115828204841417610bbd57610bbd611afd565b600082611cf757634e487b7160e01b600052601260045260246000fd5b50049056fe21702c8af46127c7fa207f89d0b0a8441bb32959a0ac7df790e9ab1a25c98926a2646970667358221220c84419357c7fb17de68c013933df13abeddf6f756f8a36d946246210dc50830464736f6c63430008140033",
  "linkReferences": {},
  "deployedLinkReferences": {}
}