{"contracts/ModelValidator.sol":{"ModelValidator":{"abi":[{"inputs":[],"stateMutability":"nonpayable","type":"constructor"},{"inputs":[],"name":"AccessControlBadConfirmation","type":"error"},{"inputs":[{"internalType":"address","name":"account","type":"address"},{"internalType":"bytes32","name":"neededRole","type":"bytes32"}],"name":"AccessControlUnauthorizedAccount","type":"error"},{"inputs":[],"name":"EnforcedPause","type":"error"},{"inputs":[],"name":"ExpectedPause","type":"error"},{"inputs":[],"name":"ReentrancyGuardReentrantCall","type":"error"},{"anonymous":false,"inputs":[{"indexed":true,"internalType":"address","name":"client","type":"address"},{"indexed":false,"internalType":"uint256","name":"newReputation","type":"uint256"},{"indexed":false,"internalType":"uint256","name":"totalContributions","type":"uint256"}],"name":"ClientReputationUpdated","type":"event"},{"anonymous":false,"inputs":[{"indexed":true,"internalType":"address","name":"caller","type":"address"},{"indexed":false,"internalType":"string","name":"reason","type":"string"}],"name":"EmergencyStop","type":"event"},{"anonymous":false,"inputs":[{"indexed":true,"internalType":"bytes32","name":"modelHash","type":"bytes32"},{"indexed":true,"internalType":"uint256","name":"roundId","type":"uint256"},{"indexed":false,"internalType":"bool","name":"isValid","type":"bool"},{"indexed":true,"internalType":"address","name":"validator","type":"address"},{"indexed":false,"internalType":"uint256","name":"timestamp","type":"uint256"},{"indexed":false,"internalType":"uint256","name":"gasUsed","type":"uint256"}],"name":"ModelValidated","type":"event"},{"anonymous":false,"inputs":[{"indexed":false,"internalType":"address","name":"account","type":"address"}],"name":"Paused","type":"event"},{"anonymous":false,"inputs":[{"indexed":false,"internalType":"uint256","name":"oldThreshold","type":"uint256"},{"indexed":false,"internalType":"uint256","name":"newThreshold","type":"uint256"}],"name":"QualityThresholdUpdated","type":"event"},{"anonymous":false,"inputs":[{"indexed":true,"internalType":"bytes32","name":"role","type":"bytes32"},{"indexed":true,"internalType":"bytes32","name":"previousAdminRole","type":"bytes32"},{"indexed":true,"internalType":"bytes32","name":"newAdminRole","type":"bytes32"}],"name":"RoleAdminChanged","type":"event"},{"anonymous":false,"inputs":[{"indexed":true,"internalType":"bytes32","name":"role","type":"bytes32"},{"indexed":true,"internalType":"address","name":"account","type":"address"},{"indexed":true,"internalType":"address","name":"sender","type":"address"}],"name":"RoleGranted","type":"event"},{"anonymous":false,"inputs":[{"indexed":true,"internalType":"bytes32","name":"role","type":"bytes32"},{"indexed":true,"internalType":"address","name":"account","type":"address"},{"indexed":true,"internalType":"address","name":"sender","type":"address"}],"name":"RoleRevoked","type":"event"},{"anonymous":false,"inputs":[{"indexed":false,"internalType":"address","name":"account","type":"address"}],"name":"Unpaused","type":"event"},{"inputs":[],"name":"DEFAULT_ADMIN_ROLE","outputs":[{"internalType":"bytes32","name":"","type":"bytes32"}],"stateMutability":"view","type":"function"},{"inputs":[],"name":"PAUSER_ROLE","outputs":[{"internalType":"bytes32","name":"","type":"bytes32"}],"stateMutability":"view","type":"function"},{"inputs":[],"name":"VALIDATOR_ROLE","outputs":[{"internalType":"bytes32","name":"","type":"bytes32"}],"stateMutability":"view","type":"function"},{"inputs":[{"internalType":"address","name":"_validator","type":"address"}],"name":"addValidator","outputs":[],"stateMutability":"nonpayable","type":"function"},{"inputs":[{"internalType":"address","name":"","type":"address"}],"name":"clientReputations","outputs":[{"internalType":"uint256","name":"totalContributions","type":"uint256"},{"internalType":"uint256","name":"validContributions","type":"uint256"},{"internalType":"uint256","name":"reputation","type":"uint256"},{"internalType":"uint256","name":"lastUpdate","type":"uint256"}],"stateMutability":"view","type":"function"},{"inputs":[],"name":"currentRound","outputs":[{"internalType":"uint256","name":"","type":"uint256"}],"stateMutability":"view","type":"function"},{"inputs":[{"internalType":"string","name":"_reason","type":"string"}],"name":"emergencyStop","outputs":[],"stateMutability":"nonpayable","type":"function"},{"inputs":[{"internalType":"address","name":"_client","type":"address"}],"name":"getClientReputation","outputs":[{"components":[{"internalType":"uint256","name":"totalContributions","type":"uint256"},{"internalType":"uint256","name":"validContributions","type":"uint256"},{"internalType":"uint256","name":"reputation","type":"uint256"},{"internalType":"uint256","name":"lastUpdate","type":"uint256"}],"internalType":"struct ModelValidator.ClientReputation","name":"reputation","type":"tuple"}],"stateMutability":"view","type":"function"},{"inputs":[],"name":"getContractBalance","outputs":[{"internalType":"uint256","name":"balance","type":"uint256"}],"stateMutability":"view","type":"function"},{"inputs":[],"name":"getContractStats","outputs":[{"internalType":"uint256[4]","name":"stats","type":"uint256[4]"}],"stateMutability":"view","type":"function"},{"inputs":[{"internalType":"bytes32","name":"role","type":"bytes32"}],"name":"getRoleAdmin","outputs":[{"internalType":"bytes32","name":"","type":"bytes32"}],"stateMutability":"view","type":"function"},{"inputs":[{"internalType":"uint256","name":"_roundId","type":"uint256"}],"name":"getRoundModels","outputs":[{"internalType":"bytes32[]","name":"modelHashes","type":"bytes32[]"}],"stateMutability":"view","type":"function"},{"inputs":[{"internalType":"string","name":"_modelHashStr","type":"string"}],"name":"getValidationResult","outputs":[{"components":[{"internalType":"bytes32","name":"modelHash","type":"bytes32"},{"internalType":"uint256","name":"roundId","type":"uint256"},{"internalType":"bool","name":"isValid","type":"bool"},{"internalType":"uint256","name":"timestamp","type":"uint256"},{"internalType":"string","name":"metadata","type":"string"},{"internalType":"address","name":"validator","type":"address"},{"internalType":"uint256","name":"gasUsed","type":"uint256"}],"internalType":"struct ModelValidator.ValidationResult","name":"result","type":"tuple"}],"stateMutability":"view","type":"function"},{"inputs":[{"internalType":"bytes32","name":"role","type":"bytes32"},{"internalType":"address","name":"account","type":"address"}],"name":"grantRole","outputs":[],"stateMutability":"nonpayable","type":"function"},{"inputs":[{"internalType":"bytes32","name":"role","type":"bytes32"},{"internalType":"address","name":"account","type":"address"}],"name":"hasRole","outputs":[{"internalType":"bool","name":"","type":"bool"}],"stateMutability":"view","type":"function"},{"inputs":[{"internalType":"string","name":"_modelHashStr","type":"string"}],"name":"isValidModel","outputs":[{"internalType":"bool","name":"isValid","type":"bool"}],"stateMutability":"view","type":"function"},{"inputs":[{"internalType":"address","name":"_validator","type":"address"}],"name":"isValidator","outputs":[{"internalType":"bool","name":"","type":"bool"}],"stateMutability":"view","type":"function"},{"inputs":[{"internalType":"address","name":"","type":"address"}],"name":"lastValidationTime","outputs":[{"internalType":"uint256","name":"","type":"uint256"}],"stateMutability":"view","type":"function"},{"inputs":[],"name":"maxValidationsPerRound","outputs":[{"internalType":"uint256","name":"","type":"uint256"}],"stateMutability":"view","type":"function"},{"inputs":[],"name":"minValidationInterval","outputs":[{"internalType":"uint256","name":"","type":"uint256"}],"stateMutability":"view","type":"function"},{"inputs":[],"name":"paused","outputs":[{"internalType":"bool","name":"","type":"bool"}],"stateMutability":"view","type":"function"},{"inputs":[],"name":"qualityThreshold","outputs":[{"internalType":"uint256","name":"","type":"uint256"}],"stateMutability":"view","type":"function"},{"inputs":[{"internalType":"address","name":"_validator","type":"address"}],"name":"removeValidator","outputs":[],"stateMutability":"nonpayable","type":"function"},{"inputs":[{"internalType":"bytes32","name":"role","type":"bytes32"},{"internalType":"address","name":"callerConfirmation","type":"address"}],"name":"renounceRole","outputs":[],"stateMutability":"nonpayable","type":"function"},{"inputs":[],"name":"resumeOperations","outputs":[],"stateMutability":"nonpayable","type":"function"},{"inputs":[{"internalType":"bytes32","name":"role","type":"bytes32"},{"internalType":"address","name":"account","type":"address"}],"name":"revokeRole","outputs":[],"stateMutability":"nonpayable","type":"function"},{"inputs":[{"internalType":"uint256","name":"","type":"uint256"},{"internalType":"uint256","name":"","type":"uint256"}],"name":"roundModels","outputs":[{"internalType":"bytes32","name":"","type":"bytes32"}],"stateMutability":"view","type":"function"},{"inputs":[{"internalType":"uint256","name":"_newMax","type":"uint256"}],"name":"setMaxValidationsPerRound","outputs":[],"stateMutability":"nonpayable","type":"function"},{"inputs":[{"internalType":"uint256","name":"_newThreshold","type":"uint256"}],"name":"setQualityThreshold","outputs":[],"stateMutability":"nonpayable","type":"function"},{"inputs":[{"internalType":"uint256","name":"_newCost","type":"uint256"}],"name":"setValidationCost","outputs":[],"stateMutability":"nonpayable","type":"function"},{"inputs":[{"internalType":"bytes4","name":"interfaceId","type":"bytes4"}],"name":"supportsInterface","outputs":[{"internalType":"bool","name":"","type":"bool"}],"stateMutability":"view","type":"function"},{"inputs":[],"name":"totalValidValidations","outputs":[{"internalType":"uint256","name":"","type":"uint256"}],"stateMutability":"view","type":"function"},{"inputs":[],"name":"totalValidations","outputs":[{"internalType":"uint256","name":"","type":"uint256"}],"stateMutability":"view","type":"function"},{"inputs":[{"internalType":"string","name":"_modelHashStr","type":"string"},{"internalType":"string","name":"_metadata","type":"string"},{"internalType":"uint256","name":"_roundId","type":"uint256"}],"name":"validateModelUpdate","outputs":[{"internalType":"bool","name":"isValid","type":"bool"}],"stateMutability":"payable","type":"function"},{"inputs":[],"name":"validationCost","outputs":[{"internalType":"uint256","name":"","type":"uint256"}],"stateMutability":"view","type":"function"},{"inputs":[{"internalType":"bytes32","name":"","type":"bytes32"}],"name":"validations","outputs":[{"internalType":"bytes32","name":"modelHash","type":"bytes32"},{"internalType":"uint256","name":"roundId","type":"uint256"},{"internalType":"bool","name":"isValid","type":"bool"},{"internalType":"uint256","name":"timestamp","type":"uint256"},{"internalType":"string","name":"metadata","type":"string"},{"internalType":"address","name":"validator","type":"address"},{"internalType":"uint256","name":"gasUsed","type":"uint256"}],"stateMutability":"view","type":"function"},{"inputs":[{"internalType":"address payable","name":"_to","type":"address"},{"internalType":"uint256","name":"_amount","type":"uint256"}],"name":"withdrawFees","outputs":[],"stateMutability":"nonpayable","type":"function"},{"stateMutability":"payable","type":"receive"}],"evm":{"bytecode":{"linkReferences":{},"object":"60806040526064600655606460075566038d7ea4c68000600855603c600a553480156200002b57600080fd5b50600180556200003d6000336200009e565b506200006a7f21702c8af46127c7fa207f89d0b0a8441bb32959a0ac7df790e9ab1a25c98926336200009e565b50620000977f65d7a28e3265b37a6474929f336521b332c1681b933f6cb9f3376673440d862a336200009e565b506200014d565b6000828152602081815260408083206001600160a01b038516845290915281205460ff1662000143576000838152602081815260408083206001600160a01b03861684529091529020805460ff19166001179055620000fa3390565b6001600160a01b0316826001600160a01b0316847f2f8788117e7eff1d82e926ec794901d17c78024a50270940304540a733656f0d60405160405180910390a450600162000147565b5060005b92915050565b611d52806200015d6000396000f3fe60806040526004361061021e5760003560e01c80636f9fb98a11610123578063b1e3268b116100ab578063e28c38021161006f578063e28c38021461068f578063e63ab1e9146106c2578063e9266931146106f6578063eb5c7ac514610723578063facd743b1461074357600080fd5b8063b1e3268b146105de578063c49baebe146105fe578063d547741f14610620578063d629490c14610640578063dfe6b5d61461066d57600080fd5b8063952684ae116100f2578063952684ae14610568578063a217fddf1461057e578063a6e1d01614610593578063ad3b1b47146105a8578063aebf13ab146105c857600080fd5b80636f9fb98a146105095780637e83514b1461051c5780638a19c8bc1461053257806391d148541461054857600080fd5b806336568abe116101a657806349d015951161017557806349d01595146104855780634d238c8e1461049b5780635808ea89146104bb5780635c975abb146104db57806363c999c3146104f357600080fd5b806336568abe146103cd57806340a141ff146103ed57806342af64381461040d57806348fc1b0f1461046f57600080fd5b8063248a9ca3116101ed578063248a9ca3146102f35780632936c507146103235780632cb817b61461035e5780632d37dc781461038b5780632f2ff15d146103ad57600080fd5b806301e32e491461022a57806301ffc9a71461025257806303ac4f67146102725780631efb3ba4146102a057600080fd5b3661022557005b600080fd5b61023d6102383660046117e7565b610763565b60405190151581526020015b60405180910390f35b34801561025e57600080fd5b5061023d61026d366004611854565b610b8c565b34801561027e57600080fd5b5061029261028d36600461187e565b610bc3565b604051908152602001610249565b3480156102ac57600080fd5b506102c06102bb3660046118b5565b610bf4565b60405161024991908151815260208083015190820152604080830151908201526060918201519181019190915260800190565b3480156102ff57600080fd5b5061029261030e3660046118d2565b60009081526020819052604090206001015490565b34801561032f57600080fd5b5061023d61033e3660046118eb565b805160209182012060009081526003909152604090206002015460ff1690565b34801561036a57600080fd5b5061037e6103793660046118d2565b610c6d565b6040516102499190611928565b34801561039757600080fd5b506103ab6103a63660046118d2565b610ccf565b005b3480156103b957600080fd5b506103ab6103c836600461196c565b610d67565b3480156103d957600080fd5b506103ab6103e836600461196c565b610d92565b3480156103f957600080fd5b506103ab6104083660046118b5565b610dca565b34801561041957600080fd5b5061044f6104283660046118b5565b60046020526000908152604090208054600182015460028301546003909301549192909184565b604080519485526020850193909352918301526060820152608001610249565b34801561047b57600080fd5b5061029260085481565b34801561049157600080fd5b50610292600c5481565b3480156104a757600080fd5b506103ab6104b63660046118b5565b610df1565b3480156104c757600080fd5b506103ab6104d63660046118d2565b610e14565b3480156104e757600080fd5b5060025460ff1661023d565b3480156104ff57600080fd5b5061029260065481565b34801561051557600080fd5b5047610292565b34801561052857600080fd5b50610292600b5481565b34801561053e57600080fd5b50610292600d5481565b34801561055457600080fd5b5061023d61056336600461196c565b610e77565b34801561057457600080fd5b50610292600a5481565b34801561058a57600080fd5b50610292600081565b34801561059f57600080fd5b506103ab610ea0565b3480156105b457600080fd5b506103ab6105c336600461199c565b610eb6565b3480156105d457600080fd5b5061029260075481565b3480156105ea57600080fd5b506103ab6105f93660046118eb565b610f98565b34801561060a57600080fd5b50610292600080516020611cfd83398151915281565b34801561062c57600080fd5b506103ab61063b36600461196c565b61100f565b34801561064c57600080fd5b5061066061065b3660046118eb565b611034565b6040516102499190611a0e565b34801561067957600080fd5b50610682611170565b6040516102499190611a80565b34801561069b57600080fd5b506106af6106aa3660046118d2565b611198565b6040516102499796959493929190611ab1565b3480156106ce57600080fd5b506102927f65d7a28e3265b37a6474929f336521b332c1681b933f6cb9f3376673440d862a81565b34801561070257600080fd5b506102926107113660046118b5565b60096020526000908152604090205481565b34801561072f57600080fd5b506103ab61073e3660046118d2565b61126e565b34801561074f57600080fd5b5061023d61075e3660046118b5565b6112c6565b600061076d6112e0565b61077561130a565b6008543410156107cc5760405162461bcd60e51b815260206004820152601b60248201527f496e73756666696369656e742076616c69646174696f6e20666565000000000060448201526064015b60405180910390fd5b60008451116108125760405162461bcd60e51b8152602060048201526012602482015271092dcecc2d8d2c840dadec8cad840d0c2e6d60731b60448201526064016107c3565b60008351116108565760405162461bcd60e51b815260206004820152601060248201526f496e76616c6964206d6574616461746160801b60448201526064016107c3565b600082116108995760405162461bcd60e51b815260206004820152601060248201526f125b9d985b1a59081c9bdd5b9908125160821b60448201526064016107c3565b600a54336000908152600960205260409020546108b69190611b13565b4210156109055760405162461bcd60e51b815260206004820152601760248201527f56616c69646174696f6e20746f6f206672657175656e7400000000000000000060448201526064016107c3565b336000908152600960209081526040808320429055600754858452600590925290912054106109815760405162461bcd60e51b815260206004820152602260248201527f4d61782076616c69646174696f6e732070657220726f756e6420657863656564604482015261195960f21b60648201526084016107c3565b835160208086019190912060008181526003928390526040902090910154156109ec5760405162461bcd60e51b815260206004820152601760248201527f4d6f64656c20616c72656164792076616c69646174656400000000000000000060448201526064016107c3565b60005a90506109fc868686611330565b925060005a610a0b9083611b26565b6040805160e08101825285815260208082018981528815158385019081524260608501908152608085018d81523360a087015260c0860188905260008b8152600395869052969096208551815592516001840155905160028301805460ff191691151591909117905551918101919091559151929350916004820190610a919082611bc1565b5060a0820151600582810180546001600160a01b0319166001600160a01b039093169290921790915560c0909201516006909101556000868152602091825260408120805460018101825590825291902001839055600d54851115610af657600d8590555b600b8054906000610b0683611c81565b91905055508315610b2757600c8054906000610b2183611c81565b91905055505b610b313385611394565b6040805185151581524260208201529081018290523390869085907f5a02718c30be7c838ae52827da1465c276c0bfcccdb766fceb69e34cffac34f29060600160405180910390a4505050610b8560018055565b9392505050565b60006001600160e01b03198216637965db0b60e01b1480610bbd57506301ffc9a760e01b6001600160e01b03198316145b92915050565b60056020528160005260406000208181548110610bdf57600080fd5b90600052602060002001600091509150505481565b610c1f6040518060800160405280600081526020016000815260200160008152602001600081525090565b506001600160a01b0316600090815260046020908152604091829020825160808101845281548152600182015492810192909252600281015492820192909252600390910154606082015290565b600081815260056020908152604091829020805483518184028101840190945280845260609392830182828015610cc357602002820191906000526020600020905b815481526020019060010190808311610caf575b50505050509050919050565b6000610cda816114af565b6103e8821115610d215760405162461bcd60e51b81526020600482015260126024820152710a8d0e4cae6d0ded8c840e8dede40d0d2ced60731b60448201526064016107c3565b600680549083905560408051828152602081018590527feb9922e3ed7835455c0b321d214f497e036d91a33d2e9883f5224484432a07ca910160405180910390a1505050565b600082815260208190526040902060010154610d82816114af565b610d8c83836114b9565b50505050565b6001600160a01b0381163314610dbb5760405163334bd91960e11b815260040160405180910390fd5b610dc5828261154b565b505050565b6000610dd5816114af565b610ded600080516020611cfd8339815191528361100f565b5050565b6000610dfc816114af565b610ded600080516020611cfd83398151915283610d67565b6000610e1f816114af565b600082118015610e3157506103e88211155b610e715760405162461bcd60e51b8152602060048201526011602482015270496e76616c6964206d61782076616c756560781b60448201526064016107c3565b50600755565b6000918252602082815260408084206001600160a01b0393909316845291905290205460ff1690565b6000610eab816114af565b610eb36115b6565b50565b6000610ec1816114af565b610ec96112e0565b6001600160a01b038316610f115760405162461bcd60e51b815260206004820152600f60248201526e496e76616c6964206164647265737360881b60448201526064016107c3565b47821115610f585760405162461bcd60e51b8152602060048201526014602482015273496e73756666696369656e742062616c616e636560601b60448201526064016107c3565b6040516001600160a01b0384169083156108fc029084906000818181858888f19350505050158015610f8e573d6000803e3d6000fd5b50610dc560018055565b7f65d7a28e3265b37a6474929f336521b332c1681b933f6cb9f3376673440d862a610fc2816114af565b610fca611608565b336001600160a01b03167f1563b77cf90dc5239369e59f415971492f0001ebea4f20a7f58d55eb638b5504836040516110039190611c9a565b60405180910390a25050565b60008281526020819052604090206001015461102a816114af565b610d8c838361154b565b6040805160e08082018352600080835260208084018290528385018290526060808501839052608080860182905260a0860184905260c086018490528751888401208085526003808552948890208851968701895280548752600181015494870194909452600284015460ff16151597860197909752928201549084015260048101805494959491928401916110c990611b39565b80601f01602080910402602001604051908101604052809291908181526020018280546110f590611b39565b80156111425780601f1061111757610100808354040283529160200191611142565b820191906000526020600020905b81548152906001019060200180831161112557829003601f168201915b505050918352505060058201546001600160a01b031660208201526006909101546040909101529392505050565b611178611726565b600b548152600c546020820152600d546040820152600654606082015290565b6003602081905260009182526040909120805460018201546002830154938301546004840180549395929460ff909316939192916111d590611b39565b80601f016020809104026020016040519081016040528092919081815260200182805461120190611b39565b801561124e5780601f106112235761010080835404028352916020019161124e565b820191906000526020600020905b81548152906001019060200180831161123157829003601f168201915b50505050600583015460069093015491926001600160a01b031691905087565b6000611279816114af565b662386f26fc100008211156112c05760405162461bcd60e51b815260206004820152600d60248201526c086dee6e840e8dede40d0d2ced609b1b60448201526064016107c3565b50600855565b6000610bbd600080516020611cfd83398151915283610e77565b60026001540361130357604051633ee5aeb560e01b815260040160405180910390fd5b6002600155565b60025460ff161561132e5760405163d93c066560e01b815260040160405180910390fd5b565b6000835160401461134357506000610b85565b61134c83611645565b61135857506000610b85565b60648351101561136a57506000610b85565b600d548210801561137d57506000600d54115b1561138a57506000610b85565b5060019392505050565b6001600160a01b03821660009081526004602052604081208054909182906113bb83611c81565b919050555081156113de576001810180549060006113d883611c81565b91905055505b80546001820154600091906113f5906103e8611cc3565b6113ff9190611cda565b905081600201546000036114195760028201819055611452565b6103e8611427826064611cc3565b600284015461143890610384611cc3565b6114429190611b13565b61144c9190611cda565b60028301555b426003830155600282015482546040516001600160a01b038716927f321a7be3e7c379ccb935df0be2f2b71bdfbbf61b8a7ce71ab73e1401e9748708926114a192918252602082015260400190565b60405180910390a250505050565b610eb381336116ca565b60006114c58383610e77565b611543576000838152602081815260408083206001600160a01b03861684529091529020805460ff191660011790556114fb3390565b6001600160a01b0316826001600160a01b0316847f2f8788117e7eff1d82e926ec794901d17c78024a50270940304540a733656f0d60405160405180910390a4506001610bbd565b506000610bbd565b60006115578383610e77565b15611543576000838152602081815260408083206001600160a01b0386168085529252808320805460ff1916905551339286917ff6391f5c32d9c69d2a47ea670b442974b53935d1edc7fd64eb21e047a839171b9190a4506001610bbd565b6115be611703565b6002805460ff191690557f5db9ee0a495bf2e6ff9c91a7834c1ba4fdd244a5e8aa4e537bd38aeae4b073aa335b6040516001600160a01b03909116815260200160405180910390a1565b61161061130a565b6002805460ff191660011790557f62e78cea01bee320cd4e420270b5ea74000d11b0c9f74754ebdbfc544b05a2586115eb3390565b60008082905060028151101561165e5750600092915050565b8060008151811061167157611671611cad565b6020910101516001600160f81b031916607b60f81b148015610b855750806001825161169d9190611b26565b815181106116ad576116ad611cad565b6020910101516001600160f81b031916607d60f81b149392505050565b6116d48282610e77565b610ded5760405163e2517d3f60e01b81526001600160a01b0382166004820152602481018390526044016107c3565b60025460ff1661132e57604051638dfc202b60e01b815260040160405180910390fd5b60405180608001604052806004906020820280368337509192915050565b634e487b7160e01b600052604160045260246000fd5b600082601f83011261176b57600080fd5b813567ffffffffffffffff8082111561178657611786611744565b604051601f8301601f19908116603f011681019082821181831017156117ae576117ae611744565b816040528381528660208588010111156117c757600080fd5b836020870160208301376000602085830101528094505050505092915050565b6000806000606084860312156117fc57600080fd5b833567ffffffffffffffff8082111561181457600080fd5b6118208783880161175a565b9450602086013591508082111561183657600080fd5b506118438682870161175a565b925050604084013590509250925092565b60006020828403121561186657600080fd5b81356001600160e01b031981168114610b8557600080fd5b6000806040838503121561189157600080fd5b50508035926020909101359150565b6001600160a01b0381168114610eb357600080fd5b6000602082840312156118c757600080fd5b8135610b85816118a0565b6000602082840312156118e457600080fd5b5035919050565b6000602082840312156118fd57600080fd5b813567ffffffffffffffff81111561191457600080fd5b6119208482850161175a565b949350505050565b6020808252825182820181905260009190848201906040850190845b8181101561196057835183529284019291840191600101611944565b50909695505050505050565b6000806040838503121561197f57600080fd5b823591506020830135611991816118a0565b809150509250929050565b600080604083850312156119af57600080fd5b82356119ba816118a0565b946020939093013593505050565b6000815180845260005b818110156119ee576020818501810151868301820152016119d2565b506000602082860101526020601f19601f83011685010191505092915050565b602081528151602082015260208201516040820152604082015115156060820152606082015160808201526000608083015160e060a0840152611a556101008401826119c8565b60a08501516001600160a01b031660c0858101919091529094015160e0909301929092525090919050565b60808101818360005b6004811015611aa8578151835260209283019290910190600101611a89565b50505092915050565b878152866020820152851515604082015284606082015260e060808201526000611ade60e08301866119c8565b6001600160a01b039490941660a08301525060c0015295945050505050565b634e487b7160e01b600052601160045260246000fd5b80820180821115610bbd57610bbd611afd565b81810381811115610bbd57610bbd611afd565b600181811c90821680611b4d57607f821691505b602082108103611b6d57634e487b7160e01b600052602260045260246000fd5b50919050565b601f821115610dc557600081815260208120601f850160051c81016020861015611b9a5750805b601f850160051c820191505b81811015611bb957828155600101611ba6565b505050505050565b815167ffffffffffffffff811115611bdb57611bdb611744565b611bef81611be98454611b39565b84611b73565b602080601f831160018114611c245760008415611c0c5750858301515b600019600386901b1c1916600185901b178555611bb9565b600085815260208120601f198616915b82811015611c5357888601518255948401946001909101908401611c34565b5085821015611c715787850151600019600388901b60f8161c191681555b5050505050600190811b01905550565b600060018201611c9357611c93611afd565b5060010190565b602081526000610b8560208301846119c8565b634e487b7160e01b600052603260045260246000fd5b8082028115828204841417610bbd57610bbd611afd565b600082611cf757634e487b7160e01b600052601260045260246000fd5b50049056fe21702c8af46127c7fa207f89d0b0a8441bb32959a0ac7df790e9ab1a25c98926a2646970667358221220c84419357c7fb17de68c013933df13abeddf6f756f8a36d946246210dc50830464736f6c63430008140033","opcodes":"PUSH1 0x80 PUSH1 0x40 MSTORE PUSH1 0x64 PUSH1 0x6 SSTORE PUSH1 0x64 PUSH1 0x7 SSTORE PUSH7 0x38D7EA4C68000 PUSH1 0x8 SSTORE PUSH1 0x3C PUSH1 0xA SSTORE CALLVALUE DUP1 ISZERO PUSH3 0x2B JUMPI PUSH1 0x0 DUP1 REVERT JUMPDEST POP PUSH1 0x1 DUP1 SSTORE PUSH3 0x3D PUSH1 0x0 CALLER PUSH3 0x9E JUMP JUMPDEST POP PUSH3 0x6A PUSH32 0x21702C8AF46127C7FA207F89D0B0A8441BB32959A0AC7DF790E9AB1A25C98926 CALLER PUSH3 0x9E JUMP JUMPDEST POP PUSH3 0x97 PUSH32 0x65D7A28E3265B37A6474929F336521B332C1681B933F6CB9F3376673440D862A CALLER PUSH3 0x9E JUMP JUMPDEST POP PUSH3 0x14D JUMP JUMPDEST PUSH1 0x0 DUP3 DUP2 MSTORE PUSH1 0x20 DUP2 DUP2 MSTORE PUSH1 0x40 DUP1 DUP4 KECCAK256 PUSH1 0x1 PUSH1 0x1 PUSH1 0xA0 SHL SUB DUP6 AND DUP5 MSTORE SWAP1 SWAP2 MSTORE DUP2 KECCAK256 SLOAD PUSH1 0xFF AND PUSH3 0x143 JUMPI PUSH1 0x0 DUP4 DUP2 MSTORE PUSH1 0x20 DUP2 DUP2 MSTORE PUSH1 0x40 DUP1 DUP4 KECCAK256 PUSH1 0x1 PUSH1 0x1 PUSH1 0xA0 SHL SUB DUP7 AND DUP5 MSTORE SWAP1 SWAP2 MSTORE SWAP1 KECCAK256 DUP1 SLOAD PUSH1 0xFF NOT AND PUSH1 0x1 OR SWAP1 SSTORE PUSH3 0xFA CALLER SWAP1 JUMP JUMPDEST PUSH1 0x1 PUSH1 0x1 PUSH1 0xA0 SHL SUB AND DUP3 PUSH1 0x1 PUSH1 0x1 PUSH1 0xA0 SHL SUB AND DUP5 PUSH32 0x2F8788117E7EFF1D82E926EC794901D17C78024A50270940304540A733656F0D PUSH1 0x40 MLOAD PUSH1 0x40 MLOAD DUP1 SWAP2 SUB SWAP1 LOG4 POP PUSH1 0x1 PUSH3 0x147 JUMP JUMPDEST POP PUSH1 0x0 JUMPDEST SWAP3 SWAP2 POP POP JUMP JUMPDEST PUSH2 0x1D52 DUP1 PUSH3 0x15D PUSH1 0x0 CODECOPY PUSH1 0x0 RETURN INVALID PUSH1 0x80 PUSH1 0x40 MSTORE PUSH1 0x4 CALLDATASIZE LT PUSH2 0x21E JUMPI PUSH1 0x0 CALLDATALOAD PUSH1 0xE0 SHR DUP1 PUSH4 0x6F9FB98A GT PUSH2 0x123 JUMPI DUP1 PUSH4 0xB1E3268B GT PUSH2 0xAB JUMPI DUP1 PUSH4 0xE28C3802 GT PUSH2 0x6F JUMPI DUP1 PUSH4 0xE28C3802 EQ PUSH2 0x68F JUMPI DUP1 PUSH4 0xE63AB1E9 EQ PUSH2 0x6C2 JUMPI DUP1 PUSH4 0xE9266931 EQ PUSH2 0x6F6 JUMPI DUP1 PUSH4 0xEB5C7AC5 EQ PUSH2 0x723 JUMPI DUP1 PUSH4 0xFACD743B EQ PUSH2 0x743 JUMPI PUSH1 0x0 DUP1 REVERT JUMPDEST DUP1 PUSH4 0xB1E3268B EQ PUSH2 0x5DE JUMPI DUP1 PUSH4 0xC49BAEBE EQ PUSH2 0x5FE JUMPI DUP1 PUSH4 0xD547741F EQ PUSH2 0x620 JUMPI DUP1 PUSH4 0xD629490C EQ PUSH2 0x640 JUMPI DUP1 PUSH4 0xDFE6B5D6 EQ PUSH2 0x66D JUMPI PUSH1 0x0 DUP1 REVERT JUMPDEST DUP1 PUSH4 0x952684AE GT PUSH2 0xF2 JUMPI DUP1 PUSH4 0x952684AE EQ PUSH2 0x568 JUMPI DUP1 PUSH4 0xA217FDDF EQ PUSH2 0x57E JUMPI DUP1 PUSH4 0xA6E1D016 EQ PUSH2 0x593 JUMPI DUP1 PUSH4 0xAD3B1B47 EQ PUSH2 0x5A8 JUMPI DUP1 PUSH4 0xAEBF13AB EQ PUSH2 0x5C8 JUMPI PUSH1 0x0 DUP1 REVERT JUMPDEST DUP1 PUSH4 0x6F9FB98A EQ PUSH2 0x509 JUMPI DUP1 PUSH4 0x7E83514B EQ PUSH2 0x51C JUMPI DUP1 PUSH4 0x8A19C8BC EQ PUSH2 0x532 JUMPI DUP1 PUSH4 0x91D14854 EQ PUSH2 0x548 JUMPI PUSH1 0x0 DUP1 REVERT JUMPDEST DUP1 PUSH4 0x36568ABE GT PUSH2 0x1A6 JUMPI DUP1 PUSH4 0x49D01595 GT PUSH2 0x175 JUMPI DUP1 PUSH4 0x49D01595 EQ PUSH2 0x485 JUMPI DUP1 PUSH4 0x4D238C8E EQ PUSH2 0x49B JUMPI DUP1 PUSH4 0x5808EA89 EQ PUSH2 0x4BB JUMPI DUP1 PUSH4 0x5C975ABB EQ PUSH2 0x4DB JUMPI DUP1 PUSH4 0x63C999C3 EQ PUSH2 0x4F3 JUMPI PUSH1 0x0 DUP1 REVERT JUMPDEST DUP1 PUSH4 0x36568ABE EQ PUSH2 0x3CD JUMPI DUP1 PUSH4 0x40A141FF EQ PUSH2 0x3ED JUMPI DUP1 PUSH4 0x42AF6438 EQ PUSH2 0x40D JUMPI DUP1 PUSH4 0x48FC1B0F EQ PUSH2 0x46F JUMPI PUSH1 0x0 DUP1 REVERT JUMPDEST DUP1 PUSH4 0x248A9CA3 GT PUSH2 0x1ED JUMPI DUP1 PUSH4 0x248A9CA3 EQ PUSH2 0x2F3 JUMPI DUP1 PUSH4 0x2936C507 EQ PUSH2 0x323 JUMPI DUP1 PUSH4 0x2CB817B6 EQ PUSH2 0x35E JUMPI DUP1 PUSH4 0x2D37DC78 EQ PUSH2 0x38B JUMPI DUP1 PUSH4 0x2F2FF15D EQ PUSH2 0x3AD JUMPI PUSH1 0x0 DUP1 REVERT JUMPDEST DUP1 PUSH4 0x1E32E49 EQ PUSH2 0x22A JUMPI DUP1 PUSH4 0x1FFC9A7 EQ PUSH2 0x252 JUMPI DUP1 PUSH4 0x3AC4F67 EQ PUSH2 0x272 JUMPI DUP1 PUSH4 0x1EFB3BA4 EQ PUSH2 0x2A0 JUMPI PUSH1 0x0 DUP1 REVERT JUMPDEST CALLDATASIZE PUSH2 0x225 JUMPI STOP JUMPDEST PUSH1 0x0 DUP1 REVERT JUMPDEST PUSH2 0x23D PUSH2 0x238 CALLDATASIZE PUSH1 0x4 PUSH2 0x17E7 JUMP JUMPDEST PUSH2 0x763 JUMP JUMPDEST PUSH1 0x40 MLOAD SWAP1 ISZERO ISZERO DUP2 MSTORE PUSH1 0x20 ADD JUMPDEST PUSH1 0x40 MLOAD DUP1 SWAP2 SUB SWAP1 RETURN JUMPDEST CALLVALUE DUP1 ISZERO PUSH2 0x25E JUMPI PUSH1 0x0 DUP1 REVERT JUMPDEST POP PUSH2 0x23D PUSH2 0x26D CALLDATASIZE PUSH1 0x4 PUSH2 0x1854 JUMP JUMPDEST PUSH2 0xB8C JUMP JUMPDEST CALLVALUE DUP1 ISZERO PUSH2 0x27E JUMPI PUSH1 0x0 DUP1 REVERT JUMPDEST POP PUSH2 0x292 PUSH2 0x28D CALLDATASIZE PUSH1 0x4 PUSH2 0x187E JUMP JUMPDEST PUSH2 0xBC3 JUMP JUMPDEST PUSH1 0x40 MLOAD SWAP1 DUP2 MSTORE PUSH1 0x20 ADD PUSH2 0x249 JUMP JUMPDEST CALLVALUE DUP1 ISZERO PUSH2 0x2AC JUMPI PUSH1 0x0 DUP1 REVERT JUMPDEST POP PUSH2 0x2C0 PUSH2 0x2BB CALLDATASIZE PUSH1 0x4 PUSH2 0x18B5 JUMP JUMPDEST PUSH2 0xBF4 JUMP JUMPDEST PUSH1 0x40 MLOAD PUSH2 0x249 SWAP2 SWAP1 DUP2 MLOAD DUP2 MSTORE PUSH1 0x20 DUP1 DUP4 ADD MLOAD SWAP1 DUP3 ADD MSTORE PUSH1 0x40 DUP1 DUP4 ADD MLOAD SWAP1 DUP3 ADD MSTORE PUSH1 0x60 SWAP2 DUP3 ADD MLOAD SWAP2 DUP2 ADD SWAP2 SWAP1 SWAP2 MSTORE PUSH1 0x80 ADD SWAP1 JUMP JUMPDEST CALLVALUE DUP1 ISZERO PUSH2 0x2FF JUMPI PUSH1 0x0 DUP1 REVERT JUMPDEST POP PUSH2 0x292 PUSH2 0x30E CALLDATASIZE PUSH1 0x4 PUSH2 0x18D2 JUMP JUMPDEST PUSH1 0x0 SWAP1 DUP2 MSTORE PUSH1 0x20 DUP2 SWAP1 MSTORE PUSH1 0x40 SWAP1 KECCAK256 PUSH1 0x1 ADD SLOAD SWAP1 JUMP JUMPDEST CALLVALUE DUP1 ISZERO PUSH2 0x32F JUMPI PUSH1 0x0 DUP1 REVERT JUMPDEST POP PUSH2 0x23D PUSH2 0x33E CALLDATASIZE PUSH1 0x4 PUSH2 0x18EB JUMP JUMPDEST DUP1 MLOAD PUSH1 0x20 SWAP2 DUP3 ADD KECCAK256 PUSH1 0x0 SWAP1 DUP2 MSTORE PUSH1 0x3 SWAP1 SWAP2 MSTORE PUSH1 0x40 SWAP1 KECCAK256 PUSH1 0x2 ADD SLOAD PUSH1 0xFF AND SWAP1 JUMP JUMPDEST CALLVALUE DUP1 ISZERO PUSH2 0x36A JUMPI PUSH1 0x0 DUP1 REVERT JUMPDEST POP PUSH2 0x37E PUSH2 0x379 CALLDATASIZE PUSH1 0x4 PUSH2 0x18D2 JUMP JUMPDEST PUSH2 0xC6D JUMP JUMPDEST PUSH1 0x40 MLOAD PUSH2 0x249 SWAP2 SWAP1 PUSH2 0x1928 JUMP JUMPDEST CALLVALUE DUP1 ISZERO PUSH2 0x397 JUMPI PUSH1 0x0 DUP1 REVERT JUMPDEST POP PUSH2 0x3AB PUSH2 0x3A6 CALLDATASIZE PUSH1 0x4 PUSH2 0x18D2 JUMP JUMPDEST PUSH2 0xCCF JUMP JUMPDEST STOP JUMPDEST CALLVALUE DUP1 ISZERO PUSH2 0x3B9 JUMPI PUSH1 0x0 DUP1 REVERT JUMPDEST POP PUSH2 0x3AB PUSH2 0x3C8 CALLDATASIZE PUSH1 0x4 PUSH2 0x196C JUMP JUMPDEST PUSH2 0xD67 JUMP JUMPDEST CALLVALUE DUP1 ISZERO PUSH2 0x3D9 JUMPI PUSH1 0x0 DUP1 REVERT JUMPDEST POP PUSH2 0x3AB PUSH2 0x3E8 CALLDATASIZE PUSH1 0x4 PUSH2 0x196C JUMP JUMPDEST PUSH2 0xD92 JUMP JUMPDEST CALLVALUE DUP1 ISZERO PUSH2 0x3F9 JUMPI PUSH1 0x0 DUP1 REVERT JUMPDEST POP PUSH2 0x3AB PUSH2 0x408 CALLDATASIZE PUSH1 0x4 PUSH2 0x18B5 JUMP JUMPDEST PUSH2 0xDCA JUMP JUMPDEST CALLVALUE DUP1 ISZERO PUSH2 0x419 JUMPI PUSH1 0x0 DUP1 REVERT JUMPDEST POP PUSH2 0x44F PUSH2 0x428 CALLDATASIZE PUSH1 0x4 PUSH2 0x18B5 JUMP JUMPDEST PUSH1 0x4 PUSH1 0x20 MSTORE PUSH1 0x0 SWAP1 DUP2 MSTORE PUSH1 0x40 SWAP1 KECCAK256 DUP1 SLOAD PUSH1 0x1 DUP3 ADD SLOAD PUSH1 0x2 DUP4 ADD SLOAD PUSH1 0x3 SWAP1 SWAP4 ADD SLOAD SWAP2 SWAP3 SWAP1 SWAP2 DUP5 JUMP JUMPDEST PUSH1 0x40 DUP1 MLOAD SWAP5 DUP6 MSTORE PUSH1 0x20 DUP6 ADD SWAP4 SWAP1 SWAP4 MSTORE SWAP2 DUP4 ADD MSTORE PUSH1 0x60 DUP3 ADD MSTORE PUSH1 0x80 ADD PUSH2 0x249 JUMP JUMPDEST CALLVALUE DUP1 ISZERO PUSH2 0x47B JUMPI PUSH1 0x0 DUP1 REVERT JUMPDEST POP PUSH2 0x292 PUSH1 0x8 SLOAD DUP2 JUMP JUMPDEST CALLVALUE DUP1 ISZERO PUSH2 0x491 JUMPI PUSH1 0x0 DUP1 REVERT JUMPDEST POP PUSH2 0x292 PUSH1 0xC SLOAD DUP2 JUMP JUMPDEST CALLVALUE DUP1 ISZERO PUSH2 0x4A7 JUMPI PUSH1 0x0 DUP1 REVERT JUMPDEST POP PUSH2 0x3AB PUSH2 0x4B6 CALLDATASIZE PUSH1 0x4 PUSH2 0x18B5 JUMP JUMPDEST PUSH2 0xDF1 JUMP JUMPDEST CALLVALUE DUP1 ISZERO PUSH2 0x4C7 JUMPI PUSH1 0x0 DUP1 REVERT JUMPDEST POP PUSH2 0x3AB PUSH2 0x4D6 CALLDATASIZE PUSH1 0x4 PUSH2 0x18D2 JUMP JUMPDEST PUSH2 0xE14 JUMP JUMPDEST CALLVALUE DUP1 ISZERO PUSH2 0x4E7 JUMPI PUSH1 0x0 DUP1 REVERT JUMPDEST POP PUSH1 0x2 SLOAD PUSH1 0xFF AND PUSH2 0x23D JUMP JUMPDEST CALLVALUE DUP1 ISZERO PUSH2 0x4FF JUMPI PUSH1 0x0 DUP1 REVERT JUMPDEST POP PUSH2 0x292 PUSH1 0x6 SLOAD DUP2 JUMP JUMPDEST CALLVALUE DUP1 ISZERO PUSH2 0x515 JUMPI PUSH1 0x0 DUP1 REVERT JUMPDEST POP SELFBALANCE PUSH2 0x292 JUMP JUMPDEST CALLVALUE DUP1 ISZERO PUSH2 0x528 JUMPI PUSH1 0x0 DUP1 REVERT JUMPDEST POP PUSH2 0x292 PUSH1 0xB SLOAD DUP2 JUMP JUMPDEST CALLVALUE DUP1 ISZERO PUSH2 0x53E JUMPI PUSH1 0x0 DUP1 REVERT JUMPDEST POP PUSH2 0x292 PUSH1 0xD SLOAD DUP2 JUMP JUMPDEST CALLVALUE DUP1 ISZERO PUSH2 0x554 JUMPI PUSH1 0x0 DUP1 REVERT JUMPDEST POP PUSH2 0x23D PUSH2 0x563 CALLDATASIZE PUSH1 0x4 PUSH2 0x196C JUMP JUMPDEST PUSH2 0xE77 JUMP JUMPDEST CALLVALUE DUP1 ISZERO PUSH2 0x574 JUMPI PUSH1 0x0 DUP1 REVERT JUMPDEST POP PUSH2 0x292 PUSH1 0xA SLOAD DUP2 JUMP JUMPDEST CALLVALUE DUP1 ISZERO PUSH2 0x58A JUMPI PUSH1 0x0 DUP1 REVERT JUMPDEST POP PUSH2 0x292 PUSH1 0x0 DUP2 JUMP JUMPDEST CALLVALUE DUP1 ISZERO PUSH2 0x59F JUMPI PUSH1 0x0 DUP1 REVERT JUMPDEST POP PUSH2 0x3AB PUSH2 0xEA0 JUMP JUMPDEST CALLVALUE DUP1 ISZERO PUSH2 0x5B4 JUMPI PUSH1 0x0 DUP1 REVERT JUMPDEST POP PUSH2 0x3AB PUSH2 0x5C3 CALLDATASIZE PUSH1 0x4 PUSH2 0x199C JUMP JUMPDEST PUSH2 0xEB6 JUMP JUMPDEST CALLVALUE DUP1 ISZERO PUSH2 0x5D4 JUMPI PUSH1 0x0 DUP1 REVERT JUMPDEST POP PUSH2 0x292 PUSH1 0x7 SLOAD DUP2 JUMP JUMPDEST CALLVALUE DUP1 ISZERO PUSH2 0x5EA JUMPI PUSH1 0x0 DUP1 REVERT JUMPDEST POP PUSH2 0x3AB PUSH2 0x5F9 CALLDATASIZE PUSH1 0x4 PUSH2 0x18EB JUMP JUMPDEST PUSH2 0xF98 JUMP JUMPDEST CALLVALUE DUP1 ISZERO PUSH2 0x60A JUMPI PUSH1 0x0 DUP1 REVERT JUMPDEST POP PUSH2 0x292 PUSH1 0x0 DUP1 MLOAD PUSH1 0x20 PUSH2 0x1CFD DUP4 CODECOPY DUP2 MLOAD SWAP2 MSTORE DUP2 JUMP JUMPDEST CALLVALUE DUP1 ISZERO PUSH2 0x62C JUMPI PUSH1 0x0 DUP1 REVERT JUMPDEST POP PUSH2 0x3AB PUSH2 0x63B CALLDATASIZE PUSH1 0x4 PUSH2 0x196C JUMP JUMPDEST PUSH2 0x100F JUMP JUMPDEST CALLVALUE DUP1 ISZERO PUSH2 0x64C JUMPI PUSH1 0x0 DUP1 REVERT JUMPDEST POP PUSH2 0x660 PUSH2 0x65B CALLDATASIZE PUSH1 0x4 PUSH2 0x18EB JUMP JUMPDEST PUSH2 0x1034 JUMP JUMPDEST PUSH1 0x40 MLOAD PUSH2 0x249 SWAP2 SWAP1 PUSH2 0x1A0E JUMP JUMPDEST CALLVALUE DUP1 ISZERO PUSH2 0x679 JUMPI PUSH1 0x0 DUP1 REVERT JUMPDEST POP PUSH2 0x682 PUSH2 0x1170 JUMP JUMPDEST PUSH1 0x40 MLOAD PUSH2 0x249 SWAP2 SWAP1 PUSH2 0x1A80 JUMP JUMPDEST CALLVALUE DUP1 ISZERO PUSH2 0x69B JUMPI PUSH1 0x0 DUP1 REVERT JUMPDEST POP PUSH2 0x6AF PUSH2 0x6AA CALLDATASIZE PUSH1 0x4 PUSH2 0x18D2 JUMP JUMPDEST PUSH2 0x1198 JUMP JUMPDEST PUSH1 0x40 MLOAD PUSH2 0x249 SWAP8 SWAP7 SWAP6 SWAP5 SWAP4 SWAP3 SWAP2 SWAP1 PUSH2 0x1AB1 JUMP JUMPDEST CALLVALUE DUP1 ISZERO PUSH2 0x6CE JUMPI PUSH1 0x0 DUP1 REVERT JUMPDEST POP PUSH2 0x292 PUSH32 0x65D7A28E3265B37A6474929F336521B332C1681B933F6CB9F3376673440D862A DUP2 JUMP JUMPDEST CALLVALUE DUP1 ISZERO PUSH2 0x702 JUMPI PUSH1 0x0 DUP1 REVERT JUMPDEST POP PUSH2 0x292 PUSH2 0x711 CALLDATASIZE PUSH1 0x4 PUSH2 0x18B5 JUMP JUMPDEST PUSH1 0x9 PUSH1 0x20 MSTORE PUSH1 0x0 SWAP1 DUP2 MSTORE PUSH1 0x40 SWAP1 KECCAK256 SLOAD DUP2 JUMP JUMPDEST CALLVALUE DUP1 ISZERO PUSH2 0x72F JUMPI PUSH1 0x0 DUP1 REVERT JUMPDEST POP PUSH2 0x3AB PUSH2 0x73E CALLDATASIZE PUSH1 0x4 PUSH2 0x18D2 JUMP JUMPDEST PUSH2 0x126E JUMP JUMPDEST CALLVALUE DUP1 ISZERO PUSH2 0x74F JUMPI PUSH1 0x0 DUP1 REVERT JUMPDEST POP PUSH2 0x23D PUSH2 0x75E CALLDATASIZE PUSH1 0x4 PUSH2 0x18B5 JUMP JUMPDEST PUSH2 0x12C6 JUMP JUMPDEST PUSH1 0x0 PUSH2 0x76D PUSH2 0x12E0 JUMP JUMPDEST PUSH2 0x775 PUSH2 0x130A JUMP JUMPDEST PUSH1 0x8 SLOAD CALLVALUE LT ISZERO PUSH2 0x7CC JUMPI PUSH1 0x40 MLOAD PUSH3 0x461BCD PUSH1 0xE5 SHL DUP2 MSTORE PUSH1 0x20 PUSH1 0x4 DUP3 ADD MSTORE PUSH1 0x1B PUSH1 0x24 DUP3 ADD MSTORE PUSH32 0x496E73756666696369656E742076616C69646174696F6E206665650000000000 PUSH1 0x44 DUP3 ADD MSTORE PUSH1 0x64 ADD JUMPDEST PUSH1 0x40 MLOAD DUP1 SWAP2 SUB SWAP1 REVERT JUMPDEST PUSH1 0x0 DUP5 MLOAD GT PUSH2 0x812 JUMPI PUSH1 0x40 MLOAD PUSH3 0x461BCD PUSH1 0xE5 SHL DUP2 MSTORE PUSH1 0x20 PUSH1 0x4 DUP3 ADD MSTORE PUSH1 0x12 PUSH1 0x24 DUP3 ADD MSTORE PUSH18 0x92DCECC2D8D2C840DADEC8CAD840D0C2E6D PUSH1 0x73 SHL PUSH1 0x44 DUP3 ADD MSTORE PUSH1 0x64 ADD PUSH2 0x7C3 JUMP JUMPDEST PUSH1 0x0 DUP4 MLOAD GT PUSH2 0x856 JUMPI PUSH1 0x40 MLOAD PUSH3 0x461BCD PUSH1 0xE5 SHL DUP2 MSTORE PUSH1 0x20 PUSH1 0x4 DUP3 ADD MSTORE PUSH1 0x10 PUSH1 0x24 DUP3 ADD MSTORE PUSH16 0x496E76616C6964206D65746164617461 PUSH1 0x80 SHL PUSH1 0x44 DUP3 ADD MSTORE PUSH1 0x64 ADD PUSH2 0x7C3 JUMP JUMPDEST PUSH1 0x0 DUP3 GT PUSH2 0x899 JUMPI PUSH1 0x40 MLOAD PUSH3 0x461BCD PUSH1 0xE5 SHL DUP2 MSTORE PUSH1 0x20 PUSH1 0x4 DUP3 ADD MSTORE PUSH1 0x10 PUSH1 0x24 DUP3 ADD MSTORE PUSH16 0x125B9D985B1A59081C9BDD5B99081251 PUSH1 0x82 SHL PUSH1 0x44 DUP3 ADD MSTORE PUSH1 0x64 ADD PUSH2 0x7C3 JUMP JUMPDEST PUSH1 0xA SLOAD CALLER PUSH1 0x0 SWAP1 DUP2 MSTORE PUSH1 0x9 PUSH1 0x20 MSTORE PUSH1 0x40 SWAP1 KECCAK256 SLOAD PUSH2 0x8B6 SWAP2 SWAP1 PUSH2 0x1B13 JUMP JUMPDEST TIMESTAMP LT ISZERO PUSH2 0x905 JUMPI PUSH1 0x40 MLOAD PUSH3 0x461BCD PUSH1 0xE5 SHL DUP2 MSTORE PUSH1 0x20 PUSH1 0x4 DUP3 ADD MSTORE PUSH1 0x17 PUSH1 0x24 DUP3 ADD MSTORE PUSH32 0x56616C69646174696F6E20746F6F206672657175656E74000000000000000000 PUSH1 0x44 DUP3 ADD MSTORE PUSH1 0x64 ADD PUSH2 0x7C3 JUMP JUMPDEST CALLER PUSH1 0x0 SWAP1 DUP2 MSTORE PUSH1 0x9 PUSH1 0x20 SWAP1 DUP2 MSTORE PUSH1 0x40 DUP1 DUP4 KECCAK256 TIMESTAMP SWAP1 SSTORE PUSH1 0x7 SLOAD DUP6 DUP5 MSTORE PUSH1 0x5 SWAP1 SWAP3 MSTORE SWAP1 SWAP2 KECCAK256 SLOAD LT PUSH2 0x981 JUMPI PUSH1 0x40 MLOAD PUSH3 0x461BCD PUSH1 0xE5 SHL DUP2 MSTORE PUSH1 0x20 PUSH1 0x4 DUP3 ADD MSTORE PUSH1 0x22 PUSH1 0x24 DUP3 ADD MSTORE PUSH32 0x4D61782076616C69646174696F6E732070657220726F756E6420657863656564 PUSH1 0x44 DUP3 ADD MSTORE PUSH2 0x1959 PUSH1 0xF2 SHL PUSH1 0x64 DUP3 ADD MSTORE PUSH1 0x84 ADD PUSH2 0x7C3 JUMP JUMPDEST DUP4 MLOAD PUSH1 0x20 DUP1 DUP7 ADD SWAP2 SWAP1 SWAP2 KECCAK256 PUSH1 0x0 DUP2 DUP2 MSTORE PUSH1 0x3 SWAP3 DUP4 SWAP1 MSTORE PUSH1 0x40 SWAP1 KECCAK256 SWAP1 SWAP2 ADD SLOAD ISZERO PUSH2 0x9EC JUMPI PUSH1 0x40 MLOAD PUSH3 0x461BCD PUSH1 0xE5 SHL DUP2 MSTORE PUSH1 0x20 PUSH1 0x4 DUP3 ADD MSTORE PUSH1 0x17 PUSH1 0x24 DUP3 ADD MSTORE PUSH32 0x4D6F64656C20616C72656164792076616C696461746564000000000000000000 PUSH1 0x44 DUP3 ADD MSTORE PUSH1 0x64 ADD PUSH2 0x7C3 JUMP JUMPDEST PUSH1 0x0 GAS SWAP1 POP PUSH2 0x9FC DUP7 DUP7 DUP7 PUSH2 0x1330 JUMP JUMPDEST SWAP3 POP PUSH1 0x0 GAS PUSH2 0xA0B SWAP1 DUP4 PUSH2 0x1B26 JUMP JUMPDEST PUSH1 0x40 DUP1 MLOAD PUSH1 0xE0 DUP2 ADD DUP3 MSTORE DUP6 DUP2 MSTORE PUSH1 0x20 DUP1 DUP3 ADD DUP10 DUP2 MSTORE DUP9 ISZERO ISZERO DUP4 DUP6 ADD SWAP1 DUP2 MSTORE TIMESTAMP PUSH1 0x60 DUP6 ADD SWAP1 DUP2 MSTORE PUSH1 0x80 DUP6 ADD DUP14 DUP2 MSTORE CALLER PUSH1 0xA0 DUP8 ADD MSTORE PUSH1 0xC0 DUP7 ADD DUP9 SWAP1 MSTORE PUSH1 0x0 DUP12 DUP2 MSTORE PUSH1 0x3 SWAP6 DUP7 SWAP1 MSTORE SWAP7 SWAP1 SWAP7 KECCAK256 DUP6 MLOAD DUP2 SSTORE SWAP3 MLOAD PUSH1 0x1 DUP5 ADD SSTORE SWAP1 MLOAD PUSH1 0x2 DUP4 ADD DUP1 SLOAD PUSH1 0xFF NOT AND SWAP2 ISZERO ISZERO SWAP2 SWAP1 SWAP2 OR SWAP1 SSTORE MLOAD SWAP2 DUP2 ADD SWAP2 SWAP1 SWAP2 SSTORE SWAP2 MLOAD SWAP3 SWAP4 POP SWAP2 PUSH1 0x4 DUP3 ADD SWAP1 PUSH2 0xA91 SWAP1 DUP3 PUSH2 0x1BC1 JUMP JUMPDEST POP PUSH1 0xA0 DUP3 ADD MLOAD PUSH1 0x5 DUP3 DUP2 ADD DUP1 SLOAD PUSH1 0x1 PUSH1 0x1 PUSH1 0xA0 SHL SUB NOT AND PUSH1 0x1 PUSH1 0x1 PUSH1 0xA0 SHL SUB SWAP1 SWAP4 AND SWAP3 SWAP1 SWAP3 OR SWAP1 SWAP2 SSTORE PUSH1 0xC0 SWAP1 SWAP3 ADD MLOAD PUSH1 0x6 SWAP1 SWAP2 ADD SSTORE PUSH1 0x0 DUP7 DUP2 MSTORE PUSH1 0x20 SWAP2 DUP3 MSTORE PUSH1 0x40 DUP2 KECCAK256 DUP1 SLOAD PUSH1 0x1 DUP2 ADD DUP3 SSTORE SWAP1 DUP3 MSTORE SWAP2 SWAP1 KECCAK256 ADD DUP4 SWAP1 SSTORE PUSH1 0xD SLOAD DUP6 GT ISZERO PUSH2 0xAF6 JUMPI PUSH1 0xD DUP6 SWAP1 SSTORE JUMPDEST PUSH1 0xB DUP1 SLOAD SWAP1 PUSH1 0x0 PUSH2 0xB06 DUP4 PUSH2 0x1C81 JUMP JUMPDEST SWAP2 SWAP1 POP SSTORE POP DUP4 ISZERO PUSH2 0xB27 JUMPI PUSH1 0xC DUP1 SLOAD SWAP1 PUSH1 0x0 PUSH2 0xB21 DUP4 PUSH2 0x1C81 JUMP JUMPDEST SWAP2 SWAP1 POP SSTORE POP JUMPDEST PUSH2 0xB31 CALLER DUP6 PUSH2 0x1394 JUMP JUMPDEST PUSH1 0x40 DUP1 MLOAD DUP6 ISZERO ISZERO DUP2 MSTORE TIMESTAMP PUSH1 0x20 DUP3 ADD MSTORE SWAP1 DUP2 ADD DUP3 SWAP1 MSTORE CALLER SWAP1 DUP7 SWAP1 DUP6 SWAP1 PUSH32 0x5A02718C30BE7C838AE52827DA1465C276C0BFCCCDB766FCEB69E34CFFAC34F2 SWAP1 PUSH1 0x60 ADD PUSH1 0x40 MLOAD DUP1 SWAP2 SUB SWAP1 LOG4 POP POP POP PUSH2 0xB85 PUSH1 0x1 DUP1 SSTORE JUMP JUMPDEST SWAP4 SWAP3 POP POP POP JUMP JUMPDEST PUSH1 0x0 PUSH1 0x1 PUSH1 0x1 PUSH1 0xE0 SHL SUB NOT DUP3 AND PUSH4 0x7965DB0B PUSH1 0xE0 SHL EQ DUP1 PUSH2 0xBBD JUMPI POP PUSH4 0x1FFC9A7 PUSH1 0xE0 SHL PUSH1 0x1 PUSH1 0x1 PUSH1 0xE0 SHL SUB NOT DUP4 AND EQ JUMPDEST SWAP3 SWAP2 POP POP JUMP JUMPDEST PUSH1 0x5 PUSH1 0x20 MSTORE DUP2 PUSH1 0x0 MSTORE PUSH1 0x40 PUSH1 0x0 KECCAK256 DUP2 DUP2 SLOAD DUP2 LT PUSH2 0xBDF JUMPI PUSH1 0x0 DUP1 REVERT JUMPDEST SWAP1 PUSH1 0x0 MSTORE PUSH1 0x20 PUSH1 0x0 KECCAK256 ADD PUSH1 0x0 SWAP2 POP SWAP2 POP POP SLOAD DUP2 JUMP JUMPDEST PUSH2 0xC1F PUSH1 0x40 MLOAD DUP1 PUSH1 0x80 ADD PUSH1 0x40 MSTORE DUP1 PUSH1 0x0 DUP2 MSTORE PUSH1 0x20 ADD PUSH1 0x0 DUP2 MSTORE PUSH1 0x20 ADD PUSH1 0x0 DUP2 MSTORE PUSH1 0x20 ADD PUSH1 0x0 DUP2 MSTORE POP SWAP1 JUMP JUMPDEST POP PUSH1 0x1 PUSH1 0x1 PUSH1 0xA0 SHL SUB AND PUSH1 0x0 SWAP1 DUP2 MSTORE PUSH1 0x4 PUSH1 0x20 SWAP1 DUP2 MSTORE PUSH1 0x40 SWAP2 DUP3 SWAP1 KECCAK256 DUP3 MLOAD PUSH1 0x80 DUP2 ADD DUP5 MSTORE DUP2 SLOAD DUP2 MSTORE PUSH1 0x1 DUP3 ADD SLOAD SWAP3 DUP2 ADD SWAP3 SWAP1 SWAP3 MSTORE PUSH1 0x2 DUP2 ADD SLOAD SWAP3 DUP3 ADD SWAP3 SWAP1 SWAP3 MSTORE PUSH1 0x3 SWAP1 SWAP2 ADD SLOAD PUSH1 0x60 DUP3 ADD MSTORE SWAP1 JUMP JUMPDEST PUSH1 0x0 DUP2 DUP2 MSTORE PUSH1 0x5 PUSH1 0x20 SWAP1 DUP2 MSTORE PUSH1 0x40 SWAP2 DUP3 SWAP1 KECCAK256 DUP1 SLOAD DUP4 MLOAD DUP2 DUP5 MUL DUP2 ADD DUP5 ADD SWAP1 SWAP5 MSTORE DUP1 DUP5 MSTORE PUSH1 0x60 SWAP4 SWAP3 DUP4 ADD DUP3 DUP3 DUP1 ISZERO PUSH2 0xCC3 JUMPI PUSH1 0x20 MUL DUP3 ADD SWAP2 SWAP1 PUSH1 0x0 MSTORE PUSH1 0x20 PUSH1 0x0 KECCAK256 SWAP1 JUMPDEST DUP2 SLOAD DUP2 MSTORE PUSH1 0x20 ADD SWAP1 PUSH1 0x1 ADD SWAP1 DUP1 DUP4 GT PUSH2 0xCAF JUMPI JUMPDEST POP POP POP POP POP SWAP1 POP SWAP2 SWAP1 POP JUMP JUMPDEST PUSH1 0x0 PUSH2 0xCDA DUP2 PUSH2 0x14AF JUMP JUMPDEST PUSH2 0x3E8 DUP3 GT ISZERO PUSH2 0xD21 JUMPI PUSH1 0x40 MLOAD PUSH3 0x461BCD PUSH1 0xE5 SHL DUP2 MSTORE PUSH1 0x20 PUSH1 0x4 DUP3 ADD MSTORE PUSH1 0x12 PUSH1 0x24 DUP3 ADD MSTORE PUSH18 0xA8D0E4CAE6D0DED8C840E8DEDE40D0D2CED PUSH1 0x73 SHL PUSH1 0x44 DUP3 ADD MSTORE PUSH1 0x64 ADD PUSH2 0x7C3 JUMP JUMPDEST PUSH1 0x6 DUP1 SLOAD SWAP1 DUP4 SWAP1 SSTORE PUSH1 0x40 DUP1 MLOAD DUP3 DUP2 MSTORE PUSH1 0x20 DUP2 ADD DUP6 SWAP1 MSTORE PUSH32 0xEB9922E3ED7835455C0B321D214F497E036D91A33D2E9883F5224484432A07CA SWAP2 ADD PUSH1 0x40 MLOAD DUP1 SWAP2 SUB SWAP1 LOG1 POP POP POP JUMP JUMPDEST PUSH1 0x0 DUP3 DUP2 MSTORE PUSH1 0x20 DUP2 SWAP1 MSTORE PUSH1 0x40 SWAP1 KECCAK256 PUSH1 0x1 ADD SLOAD PUSH2 0xD82 DUP2 PUSH2 0x14AF JUMP JUMPDEST PUSH2 0xD8C DUP4 DUP4 PUSH2 0x14B9 JUMP JUMPDEST POP POP POP POP JUMP JUMPDEST PUSH1 0x1 PUSH1 0x1 PUSH1 0xA0 SHL SUB DUP2 AND CALLER EQ PUSH2 0xDBB JUMPI PUSH1 0x40 MLOAD PUSH4 0x334BD919 PUSH1 0xE1 SHL DUP2 MSTORE PUSH1 0x4 ADD PUSH1 0x40 MLOAD DUP1 SWAP2 SUB SWAP1 REVERT JUMPDEST PUSH2 0xDC5 DUP3 DUP3 PUSH2 0x154B JUMP JUMPDEST POP POP POP JUMP JUMPDEST PUSH1 0x0 PUSH2 0xDD5 DUP2 PUSH2 0x14AF JUMP JUMPDEST PUSH2 0xDED PUSH1 0x0 DUP1 MLOAD PUSH1 0x20 PUSH2 0x1CFD DUP4 CODECOPY DUP2 MLOAD SWAP2 MSTORE DUP4 PUSH2 0x100F JUMP JUMPDEST POP POP JUMP JUMPDEST PUSH1 0x0 PUSH2 0xDFC DUP2 PUSH2 0x14AF JUMP JUMPDEST PUSH2 0xDED PUSH1 0x0 DUP1 MLOAD PUSH1 0x20 PUSH2 0x1CFD DUP4 CODECOPY DUP2 MLOAD SWAP2 MSTORE DUP4 PUSH2 0xD67 JUMP JUMPDEST PUSH1 0x0 PUSH2 0xE1F DUP2 PUSH2 0x14AF JUMP JUMPDEST PUSH1 0x0 DUP3 GT DUP1 ISZERO PUSH2 0xE31 JUMPI POP PUSH2 0x3E8 DUP3 GT ISZERO JUMPDEST PUSH2 0xE71 JUMPI PUSH1 0x40 MLOAD PUSH3 0x461BCD PUSH1 0xE5 SHL DUP2 MSTORE PUSH1 0x20 PUSH1 0x4 DUP3 ADD MSTORE PUSH1 0x11 PUSH1 0x24 DUP3 ADD MSTORE PUSH17 0x496E76616C6964206D61782076616C7565 PUSH1 0x78 SHL PUSH1 0x44 DUP3 ADD MSTORE PUSH1 0x64 ADD PUSH2 0x7C3 JUMP JUMPDEST POP PUSH1 0x7 SSTORE JUMP JUMPDEST PUSH1 0x0 SWAP2 DUP3 MSTORE PUSH1 0x20 DUP3 DUP2 MSTORE PUSH1 0x40 DUP1 DUP5 KECCAK256 PUSH1 0x1 PUSH1 0x1 PUSH1 0xA0 SHL SUB SWAP4 SWAP1 SWAP4 AND DUP5 MSTORE SWAP2 SWAP1 MSTORE SWAP1 KECCAK256 SLOAD PUSH1 0xFF AND SWAP1 JUMP JUMPDEST PUSH1 0x0 PUSH2 0xEAB DUP2 PUSH2 0x14AF JUMP JUMPDEST PUSH2 0xEB3 PUSH2 0x15B6 JUMP JUMPDEST POP JUMP JUMPDEST PUSH1 0x0 PUSH2 0xEC1 DUP2 PUSH2 0x14AF JUMP JUMPDEST PUSH2 0xEC9 PUSH2 0x12E0 JUMP JUMPDEST PUSH1 0x1 PUSH1 0x1 PUSH1 0xA0 SHL SUB DUP4 AND PUSH2 0xF11 JUMPI PUSH1 0x40 MLOAD PUSH3 0x461BCD PUSH1 0xE5 SHL DUP2 MSTORE PUSH1 0x20 PUSH1 0x4 DUP3 ADD MSTORE PUSH1 0xF PUSH1 0x24 DUP3 ADD MSTORE PUSH15 0x496E76616C69642061646472657373 PUSH1 0x88 SHL PUSH1 0x44 DUP3 ADD MSTORE PUSH1 0x64 ADD PUSH2 0x7C3 JUMP JUMPDEST SELFBALANCE DUP3 GT ISZERO PUSH2 0xF58 JUMPI PUSH1 0x40 MLOAD PUSH3 0x461BCD PUSH1 0xE5 SHL DUP2 MSTORE PUSH1 0x20 PUSH1 0x4 DUP3 ADD MSTORE PUSH1 0x14 PUSH1 0x24 DUP3 ADD MSTORE PUSH20 0x496E73756666696369656E742062616C616E6365 PUSH1 0x60 SHL PUSH1 0x44 DUP3 ADD MSTORE PUSH1 0x64 ADD PUSH2 0x7C3 JUMP JUMPDEST PUSH1 0x40 MLOAD PUSH1 0x1 PUSH1 0x1 PUSH1 0xA0 SHL SUB DUP5 AND SWAP1 DUP4 ISZERO PUSH2 0x8FC MUL SWAP1 DUP5 SWAP1 PUSH1 0x0 DUP2 DUP2 DUP2 DUP6 DUP9 DUP9 CALL SWAP4 POP POP POP POP ISZERO DUP1 ISZERO PUSH2 0xF8E JUMPI RETURNDATASIZE PUSH1 0x0 DUP1 RETURNDATACOPY RETURNDATASIZE PUSH1 0x0 REVERT JUMPDEST POP PUSH2 0xDC5 PUSH1 0x1 DUP1 SSTORE JUMP JUMPDEST PUSH32 0x65D7A28E3265B37A6474929F336521B332C1681B933F6CB9F3376673440D862A PUSH2 0xFC2 DUP2 PUSH2 0x14AF JUMP JUMPDEST PUSH2 0xFCA PUSH2 0x1608 JUMP JUMPDEST CALLER PUSH1 0x1 PUSH1 0x1 PUSH1 0xA0 SHL SUB AND PUSH32 0x1563B77CF90DC5239369E59F415971492F0001EBEA4F20A7F58D55EB638B5504 DUP4 PUSH1 0x40 MLOAD PUSH2 0x1003 SWAP2 SWAP1 PUSH2 0x1C9A JUMP JUMPDEST PUSH1 0x40 MLOAD DUP1 SWAP2 SUB SWAP1 LOG2 POP POP JUMP JUMPDEST PUSH1 0x0 DUP3 DUP2 MSTORE PUSH1 0x20 DUP2 SWAP1 MSTORE PUSH1 0x40 SWAP1 KECCAK256 PUSH1 0x1 ADD SLOAD PUSH2 0x102A DUP2 PUSH2 0x14AF JUMP JUMPDEST PUSH2 0xD8C DUP4 DUP4 PUSH2 0x154B JUMP JUMPDEST PUSH1 0x40 DUP1 MLOAD PUSH1 0xE0 DUP1 DUP3 ADD DUP4 MSTORE PUSH1 0x0 DUP1 DUP4 MSTORE PUSH1 0x20 DUP1 DUP5 ADD DUP3 SWAP1 MSTORE DUP4 DUP6 ADD DUP3 SWAP1 MSTORE PUSH1 0x60 DUP1 DUP6 ADD DUP4 SWAP1 MSTORE PUSH1 0x80 DUP1 DUP7 ADD DUP3 SWAP1 MSTORE PUSH1 0xA0 DUP7 ADD DUP5 SWAP1 MSTORE PUSH1 0xC0 DUP7 ADD DUP5 SWAP1 MSTORE DUP8 MLOAD DUP9 DUP5 ADD KECCAK256 DUP1 DUP6 MSTORE PUSH1 0x3 DUP1 DUP6 MSTORE SWAP5 DUP9 SWAP1 KECCAK256 DUP9 MLOAD SWAP7 DUP8 ADD DUP10 MSTORE DUP1 SLOAD DUP8 MSTORE PUSH1 0x1 DUP2 ADD SLOAD SWAP5 DUP8 ADD SWAP5 SWAP1 SWAP5 MSTORE PUSH1 0x2 DUP5 ADD SLOAD PUSH1 0xFF AND ISZERO ISZERO SWAP8 DUP7 ADD SWAP8 SWAP1 SWAP8 MSTORE SWAP3 DUP3 ADD SLOAD SWAP1 DUP5 ADD MSTORE PUSH1 0x4 DUP2 ADD DUP1 SLOAD SWAP5 SWAP6 SWAP5 SWAP2 SWAP3 DUP5 ADD SWAP2 PUSH2 0x10C9 SWAP1 PUSH2 0x1B39 JUMP JUMPDEST DUP1 PUSH1 0x1F ADD PUSH1 0x20 DUP1 SWAP2 DIV MUL PUSH1 0x20 ADD PUSH1 0x40 MLOAD SWAP1 DUP2 ADD PUSH1 0x40 MSTORE DUP1 SWAP3 SWAP2 SWAP1 DUP2 DUP2 MSTORE PUSH1 0x20 ADD DUP3 DUP1 SLOAD PUSH2 0x10F5 SWAP1 PUSH2 0x1B39 JUMP JUMPDEST DUP1 ISZERO PUSH2 0x1142 JUMPI DUP1 PUSH1 0x1F LT PUSH2 0x1117 JUMPI PUSH2 0x100 DUP1 DUP4 SLOAD DIV MUL DUP4 MSTORE SWAP2 PUSH1 0x20 ADD SWAP2 PUSH2 0x1142 JUMP JUMPDEST DUP3 ADD SWAP2 SWAP1 PUSH1 0x0 MSTORE PUSH1 0x20 PUSH1 0x0 KECCAK256 SWAP1 JUMPDEST DUP2 SLOAD DUP2 MSTORE SWAP1 PUSH1 0x1 ADD SWAP1 PUSH1 0x20 ADD DUP1 DUP4 GT PUSH2 0x1125 JUMPI DUP3 SWAP1 SUB PUSH1 0x1F AND DUP3 ADD SWAP2 JUMPDEST POP POP POP SWAP2 DUP4 MSTORE POP POP PUSH1 0x5 DUP3 ADD SLOAD PUSH1 0x1 PUSH1 0x1 PUSH1 0xA0 SHL SUB AND PUSH1 0x20 DUP3 ADD MSTORE PUSH1 0x6 SWAP1 SWAP2 ADD SLOAD PUSH1 0x40 SWAP1 SWAP2 ADD MSTORE SWAP4 SWAP3 POP POP POP JUMP JUMPDEST PUSH2 0x1178 PUSH2 0x1726 JUMP JUMPDEST PUSH1 0xB SLOAD DUP2 MSTORE PUSH1 0xC SLOAD PUSH1 0x20 DUP3 ADD MSTORE PUSH1 0xD SLOAD PUSH1 0x40 DUP3 ADD MSTORE PUSH1 0x6 SLOAD PUSH1 0x60 DUP3 ADD MSTORE SWAP1 JUMP JUMPDEST PUSH1 0x3 PUSH1 0x20 DUP2 SWAP1 MSTORE PUSH1 0x0 SWAP2 DUP3 MSTORE PUSH1 0x40 SWAP1 SWAP2 KECCAK256 DUP1 SLOAD PUSH1 0x1 DUP3 ADD SLOAD PUSH1 0x2 DUP4 ADD SLOAD SWAP4 DUP4 ADD SLOAD PUSH1 0x4 DUP5 ADD DUP1 SLOAD SWAP4 SWAP6 SWAP3 SWAP5 PUSH1 0xFF SWAP1 SWAP4 AND SWAP4 SWAP2 SWAP3 SWAP2 PUSH2 0x11D5 SWAP1 PUSH2 0x1B39 JUMP JUMPDEST DUP1 PUSH1 0x1F ADD PUSH1 0x20 DUP1 SWAP2 DIV MUL PUSH1 0x20 ADD PUSH1 0x40 MLOAD SWAP1 DUP2 ADD PUSH1 0x40 MSTORE DUP1 SWAP3 SWAP2 SWAP1 DUP2 DUP2 MSTORE PUSH1 0x20 ADD DUP3 DUP1 SLOAD PUSH2 0x1201 SWAP1 PUSH2 0x1B39 JUMP JUMPDEST DUP1 ISZERO PUSH2 0x124E JUMPI DUP1 PUSH1 0x1F LT PUSH2 0x1223 JUMPI PUSH2 0x100 DUP1 DUP4 SLOAD DIV MUL DUP4 MSTORE SWAP2 PUSH1 0x20 ADD SWAP2 PUSH2 0x124E JUMP JUMPDEST DUP3 ADD SWAP2 SWAP1 PUSH1 0x0 MSTORE PUSH1 0x20 PUSH1 0x0 KECCAK256 SWAP1 JUMPDEST DUP2 SLOAD DUP2 MSTORE SWAP1 PUSH1 0x1 ADD SWAP1 PUSH1 0x20 ADD DUP1 DUP4 GT PUSH2 0x1231 JUMPI DUP3 SWAP1 SUB PUSH1 0x1F AND DUP3 ADD SWAP2 JUMPDEST POP POP POP POP PUSH1 0x5 DUP4 ADD SLOAD PUSH1 0x6 SWAP1 SWAP4 ADD SLOAD SWAP2 SWAP3 PUSH1 0x1 PUSH1 0x1 PUSH1 0xA0 SHL SUB AND SWAP2 SWAP1 POP DUP8 JUMP JUMPDEST PUSH1 0x0 PUSH2 0x1279 DUP2 PUSH2 0x14AF JUMP JUMPDEST PUSH7 0x2386F26FC10000 DUP3 GT ISZERO PUSH2 0x12C0 JUMPI PUSH1 0x40 MLOAD PUSH3 0x461BCD PUSH1 0xE5 SHL DUP2 MSTORE PUSH1 0x20 PUSH1 0x4 DUP3 ADD MSTORE PUSH1 0xD PUSH1 0x24 DUP3 ADD MSTORE PUSH13 0x86DEE6E840E8DEDE40D0D2CED PUSH1 0x9B SHL PUSH1 0x44 DUP3 ADD MSTORE PUSH1 0x64 ADD PUSH2 0x7C3 JUMP JUMPDEST POP PUSH1 0x8 SSTORE JUMP JUMPDEST PUSH1 0x0 PUSH2 0xBBD PUSH1 0x0 DUP1 MLOAD PUSH1 0x20 PUSH2 0x1CFD DUP4 CODECOPY DUP2 MLOAD SWAP2 MSTORE DUP4 PUSH2 0xE77 JUMP JUMPDEST PUSH1 0x2 PUSH1 0x1 SLOAD SUB PUSH2 0x1303 JUMPI PUSH1 0x40 MLOAD PUSH4 0x3EE5AEB5 PUSH1 0xE0 SHL DUP2 MSTORE PUSH1 0x4 ADD PUSH1 0x40 MLOAD DUP1 SWAP2 SUB SWAP1 REVERT JUMPDEST PUSH1 0x2 PUSH1 0x1 SSTORE JUMP JUMPDEST PUSH1 0x2 SLOAD PUSH1 0xFF AND ISZERO PUSH2 0x132E JUMPI PUSH1 0x40 MLOAD PUSH4 0xD93C0665 PUSH1 0xE0 SHL DUP2 MSTORE PUSH1 0x4 ADD PUSH1 0x40 MLOAD DUP1 SWAP2 SUB SWAP1 REVERT JUMPDEST JUMP JUMPDEST PUSH1 0x0 DUP4 MLOAD PUSH1 0x40 EQ PUSH2 0x1343 JUMPI POP PUSH1 0x0 PUSH2 0xB85 JUMP JUMPDEST PUSH2 0x134C DUP4 PUSH2 0x1645 JUMP JUMPDEST PUSH2 0x1358 JUMPI POP PUSH1 0x0 PUSH2 0xB85 JUMP JUMPDEST PUSH1 0x64 DUP4 MLOAD LT ISZERO PUSH2 0x136A JUMPI POP PUSH1 0x0 PUSH2 0xB85 JUMP JUMPDEST PUSH1 0xD SLOAD DUP3 LT DUP1 ISZERO PUSH2 0x137D JUMPI POP PUSH1 0x0 PUSH1 0xD SLOAD GT JUMPDEST ISZERO PUSH2 0x138A JUMPI POP PUSH1 0x0 PUSH2 0xB85 JUMP JUMPDEST POP PUSH1 0x1 SWAP4 SWAP3 POP POP POP JUMP JUMPDEST PUSH1 0x1 PUSH1 0x1 PUSH1 0xA0 SHL SUB DUP3 AND PUSH1 0x0 SWAP1 DUP2 MSTORE PUSH1 0x4 PUSH1 0x20 MSTORE PUSH1 0x40 DUP2 KECCAK256 DUP1 SLOAD SWAP1 SWAP2 DUP3 SWAP1 PUSH2 0x13BB DUP4 PUSH2 0x1C81 JUMP JUMPDEST SWAP2 SWAP1 POP SSTORE POP DUP2 ISZERO PUSH2 0x13DE JUMPI PUSH1 0x1 DUP2 ADD DUP1 SLOAD SWAP1 PUSH1 0x0 PUSH2 0x13D8 DUP4 PUSH2 0x1C81 JUMP JUMPDEST SWAP2 SWAP1 POP SSTORE POP JUMPDEST DUP1 SLOAD PUSH1 0x1 DUP3 ADD SLOAD PUSH1 0x0 SWAP2 SWAP1 PUSH2 0x13F5 SWAP1 PUSH2 0x3E8 PUSH2 0x1CC3 JUMP JUMPDEST PUSH2 0x13FF SWAP2 SWAP1 PUSH2 0x1CDA JUMP JUMPDEST SWAP1 POP DUP2 PUSH1 0x2 ADD SLOAD PUSH1 0x0 SUB PUSH2 0x1419 JUMPI PUSH1 0x2 DUP3 ADD DUP2 SWAP1 SSTORE PUSH2 0x1452 JUMP JUMPDEST PUSH2 0x3E8 PUSH2 0x1427 DUP3 PUSH1 0x64 PUSH2 0x1CC3 JUMP JUMPDEST PUSH1 0x2 DUP5 ADD SLOAD PUSH2 0x1438 SWAP1 PUSH2 0x384 PUSH2 0x1CC3 JUMP JUMPDEST PUSH2 0x1442 SWAP2 SWAP1 PUSH2 0x1B13 JUMP JUMPDEST PUSH2 0x144C SWAP2 SWAP1 PUSH2 0x1CDA JUMP JUMPDEST PUSH1 0x2 DUP4 ADD SSTORE JUMPDEST TIMESTAMP PUSH1 0x3 DUP4 ADD SSTORE PUSH1 0x2 DUP3 ADD SLOAD DUP3 SLOAD PUSH1 0x40 MLOAD PUSH1 0x1 PUSH1 0x1 PUSH1 0xA0 SHL SUB DUP8 AND SWAP3 PUSH32 0x321A7BE3E7C379CCB935DF0BE2F2B71BDFBBF61B8A7CE71AB73E1401E9748708 SWAP3 PUSH2 0x14A1 SWAP3 SWAP2 DUP3 MSTORE PUSH1 0x20 DUP3 ADD MSTORE PUSH1 0x40 ADD SWAP1 JUMP JUMPDEST PUSH1 0x40 MLOAD DUP1 SWAP2 SUB SWAP1 LOG2 POP POP POP POP JUMP JUMPDEST PUSH2 0xEB3 DUP2 CALLER PUSH2 0x16CA JUMP JUMPDEST PUSH1 0x0 PUSH2 0x14C5 DUP4 DUP4 PUSH2 0xE77 JUMP JUMPDEST PUSH2 0x1543 JUMPI PUSH1 0x0 DUP4 DUP2 MSTORE PUSH1 0x20 DUP2 DUP2 MSTORE PUSH1 0x40 DUP1 DUP4 KECCAK256 PUSH1 0x1 PUSH1 0x1 PUSH1 0xA0 SHL SUB DUP7 AND DUP5 MSTORE SWAP1 SWAP2 MSTORE SWAP1 KECCAK256 DUP1 SLOAD PUSH1 0xFF NOT AND PUSH1 0x1 OR SWAP1 SSTORE PUSH2 0x14FB CALLER SWAP1 JUMP JUMPDEST PUSH1 0x1 PUSH1 0x1 PUSH1 0xA0 SHL SUB AND DUP3 PUSH1 0x1 PUSH1 0x1 PUSH1 0xA0 SHL SUB AND DUP5 PUSH32 0x2F8788117E7EFF1D82E926EC794901D17C78024A50270940304540A733656F0D PUSH1 0x40 MLOAD PUSH1 0x40 MLOAD DUP1 SWAP2 SUB SWAP1 LOG4 POP PUSH1 0x1 PUSH2 0xBBD JUMP JUMPDEST POP PUSH1 0x0 PUSH2 0xBBD JUMP JUMPDEST PUSH1 0x0 PUSH2 0x1557 DUP4 DUP4 PUSH2 0xE77 JUMP JUMPDEST ISZERO PUSH2 0x1543 JUMPI PUSH1 0x0 DUP4 DUP2 MSTORE PUSH1 0x20 DUP2 DUP2 MSTORE PUSH1 0x40 DUP1 DUP4 KECCAK256 PUSH1 0x1 PUSH1 0x1 PUSH1 0xA0 SHL SUB DUP7 AND DUP1 DUP6 MSTORE SWAP3 MSTORE DUP1 DUP4 KECCAK256 DUP1 SLOAD PUSH1 0xFF NOT AND SWAP1 SSTORE MLOAD CALLER SWAP3 DUP7 SWAP2 PUSH32 0xF6391F5C32D9C69D2A47EA670B442974B53935D1EDC7FD64EB21E047A839171B SWAP2 SWAP1 LOG4 POP PUSH1 0x1 PUSH2 0xBBD JUMP JUMPDEST PUSH2 0x15BE PUSH2 0x1703 JUMP JUMPDEST PUSH1 0x2 DUP1 SLOAD PUSH1 0xFF NOT AND SWAP1 SSTORE PUSH32 0x5DB9EE0A495BF2E6FF9C91A7834C1BA4FDD244A5E8AA4E537BD38AEAE4B073AA CALLER JUMPDEST PUSH1 0x40 MLOAD PUSH1 0x1 PUSH1 0x1 PUSH1 0xA0 SHL SUB SWAP1 SWAP2 AND DUP2 MSTORE PUSH1 0x20 ADD PUSH1 0x40 MLOAD DUP1 SWAP2 SUB SWAP1 LOG1 JUMP JUMPDEST PUSH2 0x1610 PUSH2 0x130A JUMP JUMPDEST PUSH1 0x2 DUP1 SLOAD PUSH1 0xFF NOT AND PUSH1 0x1 OR SWAP1 SSTORE PUSH32 0x62E78CEA01BEE320CD4E420270B5EA74000D11B0C9F74754EBDBFC544B05A258 PUSH2 0x15EB CALLER SWAP1 JUMP JUMPDEST PUSH1 0x0 DUP1 DUP3 SWAP1 POP PUSH1 0x2 DUP2 MLOAD LT ISZERO PUSH2 0x165E JUMPI POP PUSH1 0x0 SWAP3 SWAP2 POP POP JUMP JUMPDEST DUP1 PUSH1 0x0 DUP2 MLOAD DUP2 LT PUSH2 0x1671 JUMPI PUSH2 0x1671 PUSH2 0x1CAD JUMP JUMPDEST PUSH1 0x20 SWAP2 ADD ADD MLOAD PUSH1 0x1 PUSH1 0x1 PUSH1 0xF8 SHL SUB NOT AND PUSH1 0x7B PUSH1 0xF8 SHL EQ DUP1 ISZERO PUSH2 0xB85 JUMPI POP DUP1 PUSH1 0x1 DUP3 MLOAD PUSH2 0x169D SWAP2 SWAP1 PUSH2 0x1B26 JUMP JUMPDEST DUP2 MLOAD DUP2 LT PUSH2 0x16AD JUMPI PUSH2 0x16AD PUSH2 0x1CAD JUMP JUMPDEST PUSH1 0x20 SWAP2 ADD ADD MLOAD PUSH1 0x1 PUSH1 0x1 PUSH1 0xF8 SHL SUB NOT AND PUSH1 0x7D PUSH1 0xF8 SHL EQ SWAP4 SWAP3 POP POP POP JUMP JUMPDEST PUSH2 0x16D4 DUP3 DUP3 PUSH2 0xE77 JUMP JUMPDEST PUSH2 0xDED JUMPI PUSH1 0x40 MLOAD PUSH4 0xE2517D3F PUSH1 0xE0 SHL DUP2 MSTORE PUSH1 0x1 PUSH1 0x1 PUSH1 0xA0 SHL SUB DUP3 AND PUSH1 0x4 DUP3 ADD MSTORE PUSH1 0x24 DUP2 ADD DUP4 SWAP1 MSTORE PUSH1 0x44 ADD PUSH2 0x7C3 JUMP JUMPDEST PUSH1 0x2 SLOAD PUSH1 0xFF AND PUSH2 0x132E JUMPI PUSH1 0x40 MLOAD PUSH4 0x8DFC202B PUSH1 0xE0 SHL DUP2 MSTORE PUSH1 0x4 ADD PUSH1 0x40 MLOAD DUP1 SWAP2 SUB SWAP1 REVERT JUMPDEST PUSH1 0x40 MLOAD DUP1 PUSH1 0x80 ADD PUSH1 0x40 MSTORE DUP1 PUSH1 0x4 SWAP1 PUSH1 0x20 DUP3 MUL DUP1 CALLDATASIZE DUP4 CALLDATACOPY POP SWAP2 SWAP3 SWAP2 POP POP JUMP JUMPDEST PUSH4 0x4E487B71 PUSH1 0xE0 SHL PUSH1 0x0 MSTORE PUSH1 0x41 PUSH1 0x4 MSTORE PUSH1 0x24 PUSH1 0x0 REVERT JUMPDEST PUSH1 0x0 DUP3 PUSH1 0x1F DUP4 ADD SLT PUSH2 0x176B JUMPI PUSH1 0x0 DUP1 REVERT JUMPDEST DUP2 CALLDATALOAD PUSH8 0xFFFFFFFFFFFFFFFF DUP1 DUP3 GT ISZERO PUSH2 0x1786 JUMPI PUSH2 0x1786 PUSH2 0x1744 JUMP JUMPDEST PUSH1 0x40 MLOAD PUSH1 0x1F DUP4 ADD PUSH1 0x1F NOT SWAP1 DUP2 AND PUSH1 0x3F ADD AND DUP2 ADD SWAP1 DUP3 DUP3 GT DUP2 DUP4 LT OR ISZERO PUSH2 0x17AE JUMPI PUSH2 0x17AE PUSH2 0x1744 JUMP JUMPDEST DUP2 PUSH1 0x40 MSTORE DUP4 DUP2 MSTORE DUP7 PUSH1 0x20 DUP6 DUP9 ADD ADD GT ISZERO PUSH2 0x17C7 JUMPI PUSH1 0x0 DUP1 REVERT JUMPDEST DUP4 PUSH1 0x20 DUP8 ADD PUSH1 0x20 DUP4 ADD CALLDATACOPY PUSH1 0x0 PUSH1 0x20 DUP6 DUP4 ADD ADD MSTORE DUP1 SWAP5 POP POP POP POP POP SWAP3 SWAP2 POP POP JUMP JUMPDEST PUSH1 0x0 DUP1 PUSH1 0x0 PUSH1 0x60 DUP5 DUP7 SUB SLT ISZERO PUSH2 0x17FC JUMPI PUSH1 0x0 DUP1 REVERT JUMPDEST DUP4 CALLDATALOAD PUSH8 0xFFFFFFFFFFFFFFFF DUP1 DUP3 GT ISZERO PUSH2 0x1814 JUMPI PUSH1 0x0 DUP1 REVERT JUMPDEST PUSH2 0x1820 DUP8 DUP4 DUP9 ADD PUSH2 0x175A JUMP JUMPDEST SWAP5 POP PUSH1 0x20 DUP7 ADD CALLDATALOAD SWAP2 POP DUP1 DUP3 GT ISZERO PUSH2 0x1836 JUMPI PUSH1 0x0 DUP1 REVERT JUMPDEST POP PUSH2 0x1843 DUP7 DUP3 DUP8 ADD PUSH2 0x175A JUMP JUMPDEST SWAP3 POP POP PUSH1 0x40 DUP5 ADD CALLDATALOAD SWAP1 POP SWAP3 POP SWAP3 POP SWAP3 JUMP JUMPDEST PUSH1 0x0 PUSH1 0x20 DUP3 DUP5 SUB SLT ISZERO PUSH2 0x1866 JUMPI PUSH1 0x0 DUP1 REVERT JUMPDEST DUP2 CALLDATALOAD PUSH1 0x1 PUSH1 0x1 PUSH1 0xE0 SHL SUB NOT DUP2 AND DUP2 EQ PUSH2 0xB85 JUMPI PUSH1 0x0 DUP1 REVERT JUMPDEST PUSH1 0x0 DUP1 PUSH1 0x40 DUP4 DUP6 SUB SLT ISZERO PUSH2 0x1891 JUMPI PUSH1 0x0 DUP1 REVERT JUMPDEST POP POP DUP1 CALLDATALOAD SWAP3 PUSH1 0x20 SWAP1 SWAP2 ADD CALLDATALOAD SWAP2 POP JUMP JUMPDEST PUSH1 0x1 PUSH1 0x1 PUSH1 0xA0 SHL SUB DUP2 AND DUP2 EQ PUSH2 0xEB3 JUMPI PUSH1 0x0 DUP1 REVERT JUMPDEST PUSH1 0x0 PUSH1 0x20 DUP3 DUP5 SUB SLT ISZERO PUSH2 0x18C7 JUMPI PUSH1 0x0 DUP1 REVERT JUMPDEST DUP2 CALLDATALOAD PUSH2 0xB85 DUP2 PUSH2 0x18A0 JUMP JUMPDEST PUSH1 0x0 PUSH1 0x20 DUP3 DUP5 SUB SLT ISZERO PUSH2 0x18E4 JUMPI PUSH1 0x0 DUP1 REVERT JUMPDEST POP CALLDATALOAD SWAP2 SWAP1 POP JUMP JUMPDEST PUSH1 0x0 PUSH1 0x20 DUP3 DUP5 SUB SLT ISZERO PUSH2 0x18FD JUMPI PUSH1 0x0 DUP1 REVERT JUMPDEST DUP2 CALLDATALOAD PUSH8 0xFFFFFFFFFFFFFFFF DUP2 GT ISZERO PUSH2 0x1914 JUMPI PUSH1 0x0 DUP1 REVERT JUMPDEST PUSH2 0x1920 DUP5 DUP3 DUP6 ADD PUSH2 0x175A JUMP JUMPDEST SWAP5 SWAP4 POP POP POP POP JUMP JUMPDEST PUSH1 0x20 DUP1 DUP3 MSTORE DUP3 MLOAD DUP3 DUP3 ADD DUP2 SWAP1 MSTORE PUSH1 0x0 SWAP2 SWAP1 DUP5 DUP3 ADD SWAP1 PUSH1 0x40 DUP6 ADD SWAP1 DUP5 JUMPDEST DUP2 DUP2 LT ISZERO PUSH2 0x1960 JUMPI DUP4 MLOAD DUP4 MSTORE SWAP3 DUP5 ADD SWAP3 SWAP2 DUP5 ADD SWAP2 PUSH1 0x1 ADD PUSH2 0x1944 JUMP JUMPDEST POP SWAP1 SWAP7 SWAP6 POP POP POP POP POP POP JUMP JUMPDEST PUSH1 0x0 DUP1 PUSH1 0x40 DUP4 DUP6 SUB SLT ISZERO PUSH2 0x197F JUMPI PUSH1 0x0 DUP1 REVERT JUMPDEST DUP3 CALLDATALOAD SWAP2 POP PUSH1 0x20 DUP4 ADD CALLDATALOAD PUSH2 0x1991 DUP2 PUSH2 0x18A0 JUMP JUMPDEST DUP1 SWAP2 POP POP SWAP3 POP SWAP3 SWAP1 POP JUMP JUMPDEST PUSH1 0x0 DUP1 PUSH1 0x40 DUP4 DUP6 SUB SLT ISZERO PUSH2 0x19AF JUMPI PUSH1 0x0 DUP1 REVERT JUMPDEST DUP3 CALLDATALOAD PUSH2 0x19BA DUP2 PUSH2 0x18A0 JUMP JUMPDEST SWAP5 PUSH1 0x20 SWAP4 SWAP1 SWAP4 ADD CALLDATALOAD SWAP4 POP POP POP JUMP JUMPDEST PUSH1 0x0 DUP2 MLOAD DUP1 DUP5 MSTORE PUSH1 0x0 JUMPDEST DUP2 DUP2 LT ISZERO PUSH2 0x19EE JUMPI PUSH1 0x20 DUP2 DUP6 ADD DUP2 ADD MLOAD DUP7 DUP4 ADD DUP3 ADD MSTORE ADD PUSH2 0x19D2 JUMP JUMPDEST POP PUSH1 0x0 PUSH1 0x20 DUP3 DUP7 ADD ADD MSTORE PUSH1 0x20 PUSH1 0x1F NOT PUSH1 0x1F DUP4 ADD AND DUP6 ADD ADD SWAP2 POP POP SWAP3 SWAP2 POP POP JUMP JUMPDEST PUSH1 0x20 DUP2 MSTORE DUP2 MLOAD PUSH1 0x20 DUP3 ADD MSTORE PUSH1 0x20 DUP3 ADD MLOAD PUSH1 0x40 DUP3 ADD MSTORE PUSH1 0x40 DUP3 ADD MLOAD ISZERO ISZERO PUSH1 0x60 DUP3 ADD MSTORE PUSH1 0x60 DUP3 ADD MLOAD PUSH1 0x80 DUP3 ADD MSTORE PUSH1 0x0 PUSH1 0x80 DUP4 ADD MLOAD PUSH1 0xE0 PUSH1 0xA0 DUP5 ADD MSTORE PUSH2 0x1A55 PUSH2 0x100 DUP5 ADD DUP3 PUSH2 0x19C8 JUMP JUMPDEST PUSH1 0xA0 DUP6 ADD MLOAD PUSH1 0x1 PUSH1 0x1 PUSH1 0xA0 SHL SUB AND PUSH1 0xC0 DUP6 DUP2 ADD SWAP2 SWAP1 SWAP2 MSTORE SWAP1 SWAP5 ADD MLOAD PUSH1 0xE0 SWAP1 SWAP4 ADD SWAP3 SWAP1 SWAP3 MSTORE POP SWAP1 SWAP2 SWAP1 POP JUMP JUMPDEST PUSH1 0x80 DUP2 ADD DUP2 DUP4 PUSH1 0x0 JUMPDEST PUSH1 0x4 DUP2 LT ISZERO PUSH2 0x1AA8 JUMPI DUP2 MLOAD DUP4 MSTORE PUSH1 0x20 SWAP3 DUP4 ADD SWAP3 SWAP1 SWAP2 ADD SWAP1 PUSH1 0x1 ADD PUSH2 0x1A89 JUMP JUMPDEST POP POP POP SWAP3 SWAP2 POP POP JUMP JUMPDEST DUP8 DUP2 MSTORE DUP7 PUSH1 0x20 DUP3 ADD MSTORE DUP6 ISZERO ISZERO PUSH1 0x40 DUP3 ADD MSTORE DUP5 PUSH1 0x60 DUP3 ADD MSTORE PUSH1 0xE0 PUSH1 0x80 DUP3 ADD MSTORE PUSH1 0x0 PUSH2 0x1ADE PUSH1 0xE0 DUP4 ADD DUP7 PUSH2 0x19C8 JUMP JUMPDEST PUSH1 0x1 PUSH1 0x1 PUSH1 0xA0 SHL SUB SWAP5 SWAP1 SWAP5 AND PUSH1 0xA0 DUP4 ADD MSTORE POP PUSH1 0xC0 ADD MSTORE SWAP6 SWAP5 POP POP POP POP POP JUMP JUMPDEST PUSH4 0x4E487B71 PUSH1 0xE0 SHL PUSH1 0x0 MSTORE PUSH1 0x11 PUSH1 0x4 MSTORE PUSH1 0x24 PUSH1 0x0 REVERT JUMPDEST DUP1 DUP3 ADD DUP1 DUP3 GT ISZERO PUSH2 0xBBD JUMPI PUSH2 0xBBD PUSH2 0x1AFD JUMP JUMPDEST DUP2 DUP2 SUB DUP2 DUP2 GT ISZERO PUSH2 0xBBD JUMPI PUSH2 0xBBD PUSH2 0x1AFD JUMP JUMPDEST PUSH1 0x1 DUP2 DUP2 SHR SWAP1 DUP3 AND DUP1 PUSH2 0x1B4D JUMPI PUSH1 0x7F DUP3 AND SWAP2 POP JUMPDEST PUSH1 0x20 DUP3 LT DUP2 SUB PUSH2 0x1B6D JUMPI PUSH4 0x4E487B71 PUSH1 0xE0 SHL PUSH1 0x0 MSTORE PUSH1 0x22 PUSH1 0x4 MSTORE PUSH1 0x24 PUSH1 0x0 REVERT JUMPDEST POP SWAP2 SWAP1 POP JUMP JUMPDEST PUSH1 0x1F DUP3 GT ISZERO PUSH2 0xDC5 JUMPI PUSH1 0x0 DUP2 DUP2 MSTORE PUSH1 0x20 DUP2 KECCAK256 PUSH1 0x1F DUP6 ADD PUSH1 0x5 SHR DUP2 ADD PUSH1 0x20 DUP7 LT ISZERO PUSH2 0x1B9A JUMPI POP DUP1 JUMPDEST PUSH1 0x1F DUP6 ADD PUSH1 0x5 SHR DUP3 ADD SWAP2 POP JUMPDEST DUP2 DUP2 LT ISZERO PUSH2 0x1BB9 JUMPI DUP3 DUP2 SSTORE PUSH1 0x1 ADD PUSH2 0x1BA6 JUMP JUMPDEST POP POP POP POP POP POP JUMP JUMPDEST DUP2 MLOAD PUSH8 0xFFFFFFFFFFFFFFFF DUP2 GT ISZERO PUSH2 0x1BDB JUMPI PUSH2 0x1BDB PUSH2 0x1744 JUMP JUMPDEST PUSH2 0x1BEF DUP2 PUSH2 0x1BE9 DUP5 SLOAD PUSH2 0x1B39 JUMP JUMPDEST DUP5 PUSH2 0x1B73 JUMP JUMPDEST PUSH1 0x20 DUP1 PUSH1 0x1F DUP4 GT PUSH1 0x1 DUP2 EQ PUSH2 0x1C24 JUMPI PUSH1 0x0 DUP5 ISZERO PUSH2 0x1C0C JUMPI POP DUP6 DUP4 ADD MLOAD JUMPDEST PUSH1 0x0 NOT PUSH1 0x3 DUP7 SWAP1 SHL SHR NOT AND PUSH1 0x1 DUP6 SWAP1 SHL OR DUP6 SSTORE PUSH2 0x1BB9 JUMP JUMPDEST PUSH1 0x0 DUP6 DUP2 MSTORE PUSH1 0x20 DUP2 KECCAK256 PUSH1 0x1F NOT DUP7 AND SWAP2 JUMPDEST DUP3 DUP2 LT ISZERO PUSH2 0x1C53 JUMPI DUP9 DUP7 ADD MLOAD DUP3 SSTORE SWAP5 DUP5 ADD SWAP5 PUSH1 0x1 SWAP1 SWAP2 ADD SWAP1 DUP5 ADD PUSH2 0x1C34 JUMP JUMPDEST POP DUP6 DUP3 LT ISZERO PUSH2 0x1C71 JUMPI DUP8 DUP6 ADD MLOAD PUSH1 0x0 NOT PUSH1 0x3 DUP9 SWAP1 SHL PUSH1 0xF8 AND SHR NOT AND DUP2 SSTORE JUMPDEST POP POP POP POP POP PUSH1 0x1 SWAP1 DUP2 SHL ADD SWAP1 SSTORE POP JUMP JUMPDEST PUSH1 0x0 PUSH1 0x1 DUP3 ADD PUSH2 0x1C93 JUMPI PUSH2 0x1C93 PUSH2 0x1AFD JUMP JUMPDEST POP PUSH1 0x1 ADD SWAP1 JUMP JUMPDEST PUSH1 0x20 DUP2 MSTORE PUSH1 0x0 PUSH2 0xB85 PUSH1 0x20 DUP4 ADD DUP5 PUSH2 0x19C8 JUMP JUMPDEST PUSH4 0x4E487B71 PUSH1 0xE0 SHL PUSH1 0x0 MSTORE PUSH1 0x32 PUSH1 0x4 MSTORE PUSH1 0x24 PUSH1 0x0 REVERT JUMPDEST DUP1 DUP3 MUL DUP2 ISZERO DUP3 DUP3 DIV DUP5 EQ OR PUSH2 0xBBD JUMPI PUSH2 0xBBD PUSH2 0x1AFD JUMP JUMPDEST PUSH1 0x0 DUP3 PUSH2 0x1CF7 JUMPI PUSH4 0x4E487B71 PUSH1 0xE0 SHL PUSH1 0x0 MSTORE PUSH1 0x12 PUSH1 0x4 MSTORE PUSH1 0x24 PUSH1 0x0 REVERT JUMPDEST POP DIV SWAP1 JUMP INVALID 0x21 PUSH17 0x2C8AF46127C7FA207F89D0B0A8441BB329 MSIZE LOG0 0xAC PUSH30 0xF790E9AB1A25C98926A2646970667358221220C84419357C7FB17DE68C01 CODECOPY CALLER 0xDF SGT 0xAB 0xED 0xDF PUSH16 0x756F8A36D946246210DC50830464736F PUSH13 0x63430008140033000000000000 "},"methodIdentifiers":{"DEFAULT_ADMIN_ROLE()":"a217fddf","PAUSER_ROLE()":"e63ab1e9","VALIDATOR_ROLE()":"c49baebe","addValidator(address)":"4d238c8e","clientReputations(address)":"42af6438","currentRound()":"8a19c8bc","emergencyStop(string)":"b1e3268b","getClientReputation(address)":"1efb3ba4","getContractBalance()":"6f9fb98a","getContractStats()":"dfe6b5d6","getRoleAdmin(bytes32)":"248a9ca3","getRoundModels(uint256)":"2cb817b6","getValidationResult(string)":"d629490c","grantRole(bytes32,address)":"2f2ff15d","hasRole(bytes32,address)":"91d14854","isValidModel(string)":"2936c507","isValidator(address)":"facd743b","lastValidationTime(address)":"e9266931","maxValidationsPerRound()":"aebf13ab","minValidationInterval()":"952684ae","paused()":"5c975abb","qualityThreshold()":"63c999c3","removeValidator(address)":"40a141ff","renounceRole(bytes32,address)":"36568abe","resumeOperations()":"a6e1d016","revokeRole(bytes32,address)":"d547741f","roundModels(uint256,uint256)":"03ac4f67","setMaxValidationsPerRound(uint256)":"5808ea89","setQualityThreshold(uint256)":"2d37dc78","setValidationCost(uint256)":"eb5c7ac5","supportsInterface(bytes4)":"01ffc9a7","totalValidValidations()":"49d01595","totalValidations()":"7e83514b","validateModelUpdate(string,string,uint256)":"01e32e49","validationCost()":"48fc1b0f","validations(bytes32)":"e28c3802","withdrawFees(address,uint256)":"ad3b1b47"}}}}}